:020000040000FA
:10000000A0102020D5000000D9000000DB00000077
:1000100000000000000000000000000000000000E0
:10002000000000000000000000000000DD000000F3
:100030000000000000000000DF000000E100000000
:10004000E3000000391B0000E3000000F12A00007B
:10005000E3000000E3000000E3000000E300000014
:1000600000000000E3000000E300000000000000CA
:1000700000000000D9260000412A0000B12600003F
:10008000E3000000E3000000E30000005126000050
:10009000E3000000E300000000000000000000009A
:1000A000E3000000E300000000000000000000008A
:1000B000E300000000000000E3000000E300000097
:1000C0000348854600F0D0FB004800470D30000093
:1000D000A010202003480047FEE7FEE7FEE7FEE70A
:1000E000FEE7FEE7C1000000F8B500242546002920
:1000F00004DA0E46012400214042B141002B04DA0B
:100100001E46002352420125B34100F06FFA8C468F
:1001100017461E46AC4203D0002540428D41AC46F6
:10012000002C02D0002657429E4161463A46334693
:1001300001B0F0BD03460B439B0703D009E008C99B
:10014000121F08C0042AFAD203E00B780370401C87
:10015000491C521EF9D27047F8B502464A40D40FE6
:1001600042004B0052085B089A4202D202460846FF
:1001700011464A0023D0C30D4A00DDB2120EAD1A5B
:10018000202D35DA49020126490AF6058A19002C84
:1001900000D0524220214F1B1146B9402A4110186D
:1001A000C20D9A4221D0002C17D0012D08DCDA05AF
:1001B000801AD20F8019D207DBB200F0BBFAF8BD6B
:1001C000DA05801A012340001B06C01880185A4225
:1001D0008018CA0F1043490007E04908C2071143BD
:1001E000DA05801A80194008801800F09BFAF8BDE3
:1001F00061000122511A001BF7E70122D20751408A
:10020000AAE70122D2075040A6E7024670B54A404D
:10021000D30FDB0740002DD04A002AD0010E140E68
:10022000000212020919400A520A8418E501044624
:100230005443000A120A2E045043A4194219200CF8
:10024000C543AA18120C0125AD03521C5219120401
:100250007F39240400D0521C104301D44000491EB1
:10026000C2B20C06C0092018401C4008802A02D0E7
:1002700003E0002070BD40084000002900DA0020A3
:10028000184370BDF0B51FB488B00B9909980024CD
:1002900048400999C00F490049080991C0070B99C6
:1002A0000090490049080B9109990898A64608430F
:1002B0001CD00B990A98084318D0099801244000D3
:1002C000420D4800410D099824050003000B20430E
:1002D00009900B980003000B20430B9050181C4909
:1002E0004018002201901446104605E00020014607
:1002F0000DB0F0BD032801DA034600E003239C465D
:10030000C11A0AAE0AE05F0008ADED5B4F00F75B73
:100310007D430027AA187C41491C5B1E6145F2DD24
:10032000410004AB5A522104120C0A43240C401C15
:100330000828DFDB01980290009970460191009037
:10034000059B049A0799069800F03AFAD0E7000056
:100350000DFCFFFFF0B50C465C4085B0E40FE407F0
:1003600003944C000026640859009446490802464C
:100370000296224321D062460A431ED06200570DE6
:100380004A000E032303550D012402462C4924057F
:10039000781B1B0B360B4018234326436146009005
:1003A0001C46501AB44103D30098401C009002E050
:1003B000921800985B41002803DA0020014605B03E
:1003C000F0BD0020012109050746864611E064467C
:1003D0001D46141BB54106D36546521BB3417446F6
:1003E00007430C43A646CD07400849082843921806
:1003F0005B4105460D43EAD11046184313D06046D1
:10040000194650407140084306D06046101AB34167
:1004100006D20122002306E000220123DB0702E0CE
:100420000122D2435310009874460105381C6141E3
:10043000029C039D0019694100F0B5F9BFE7000077
:10044000FD0300000122D207002800DB101A00295A
:1004500000DB511A814201D801207047002070470B
:100460000122D207002800DB101A002900DB511AF4
:10047000814201D201207047002070470122D2073B
:10048000002800DB101A002900DB511A814201D339
:1004900001207047002070470122D207002800DBAE
:1004A000101A002900DB511A814201D9012070473E
:1004B000002070470122D207002800DB101A002913
:1004C00000DB511A814201D10120704700207047A2
:1004D000C217C10F504010B54018CA07962300211B
:1004E00000F028F910BD00000EB5C217C10F504032
:1004F000CA0740180021054B0293019200910A4659
:100500000B4600F05DF903B000BD000033040000AD
:10051000C20F410040020123400ADB05D207090E49
:10052000C0187F2901DA00207047962903DC962342
:10053000591AC84001E096398840002AF4D0404258
:100540007047410040020122400AD205090E80187E
:100550007F2901DA00207047962903DC9622511A80
:10056000C8407047963988407047000070B5CD0F7D
:100570004A0009030123090B1B0519430B4BED0727
:100580000024520D9A4201DA002070BD074B34332B
:100590009A4203DC9A1A00F059F802E00449511813
:1005A00088402C43F1D0404270BD0000FF030000A2
:1005B000CDFBFFFFCB0FDB07490010B54908024612
:1005C0000A4307D00A0D07240903E401090B121B93
:1005D000002A01DC002010BDC900440F0C43C100FB
:1005E000E018D205801800F09DF810BDF0B51FB4DA
:1005F0000646002082B005464024019100901BE091
:10060000019922460F46304600F020F8049A059BD7
:10061000801A994110D310461946224600F03CF941
:10062000361A8F410197224601200021009F00F0D9
:1006300033F938184D4100902046641E0028DFDC55
:10064000019B00982946324607B0F0BD10B5202A1C
:1006500004DB0846203AD040002110BD0B46D340B1
:10066000D0402024A21A91400843194610BD000032
:100670000FB400B589B00A460DA9009100230C996A
:10068000002ACB60234B0693234B079301D004230E
:1006900000E00023214A0292214A08920193024677
:1006A0006B46002000F0A5F909B008BC04B018475B
:1006B000F0B585B007460020C04301901E460020DB
:1006C00015460C460091029104903B466A4631461D
:1006D00004A8FFF7CDFF049902466018002D05D04D
:1006E000002901D0034600E023462B6000290ED0EC
:1006F000002A02DD0099814209D0001B019000947C
:100700003B466A463146029404A8FFF7B1FF05B0A4
:10071000F0BD0000490C0000690C0000FFFFFF7FE6
:10072000C1080000002904DA401C490001D140083A
:100730004000704770B40024050C05D1102400045B
:1007400002D1002921D01124050E01D10002083464
:10075000050F01D10001241D850F01D18000A41CCB
:10076000002801DB4000641C002908D020252E1B36
:100770000D46F540A14000D0012129430843010660
:100780001B1B000ADB1D02D5002070BC7047DB0577
:10079000181880180029F8DA401C4900F5D170BCFF
:1007A00040084000704710B5002B08DA0024401CB8
:1007B000614192185B411A4301D14008400010BDCD
:1007C000F0B51FB482B005460C0003D0084602F015
:1007D0009EFD02E002F09BFD203002460090214683
:1007E000284600F059F8049B059A04460F46184322
:1007F0001143084314D0184610431BD000984021E1
:100800000A1A18460599FFF721FF05460E46009A79
:100810000599049800F040F8084305D0012004E051
:100820002046394607B0F0BD0020C11705430E43EE
:100830002C43374300990E986305401A7905E40A62
:1008400000220C43FD0A0A3002D500200146E9E7E8
:100850000105101969410C9C0D9D00196941FFF7B4
:10086000A2FFDFE7000000001CB50948009009481E
:10087000019005460126009C05E0E36807CC334360
:100880000C3C98471034AC42F7D3FFF71DFC000036
:10089000143500003435000010B5202A04DB014671
:1008A000203A9140002010BD914020239C1A03461D
:1008B000E3401943904010BD0048704738340000B1
:1008C00010B50446FFF7F8FF0068005DC007C00FD1
:1008D00010BD0000FFB5087889B01546FF2805D087
:1008E000491C2D2804D00022002407E000240BE03E
:1008F0000122F9E70A235C430419491C0878FF2800
:10090000F8D1002A00D06442002004902A780146E1
:100910002D2A01D02B2A0FD16D1C2D2A02D00022A6
:10092000049209E00122FBE700260A2233466D1CEF
:1009300000F0ACF9381871412F78FF2FF4D10C9AE0
:10094000A218069202460A4304D0FF23069A913366
:10095000DA4205DA002109980A4606C00DB0F0BD5A
:100960000024B74AB54D2646079200F0A7F9029039
:1009700006980391002801DA474200E0074639054E
:100980000020AF4A001C51410191009012E0F8078D
:1009900007D022462B4630460799FFF773FC0646E0
:1009A000079122462B4610461946FFF76BFC04467A
:1009B0000D467F10002FEAD10698019B0028009A6F
:1009C0000399029806DAFFF7C5FC3246079BFFF74A
:1009D000C1FC05E0FFF756FC3246079BFFF752FCCF
:1009E000049A002A02D00122D2075140099A03C278
:1009F000B4E7FFB591B0002009900025ED432E200B
:100A00009E685C681F460190B9696D1C1298884702
:100A10000090396A88470028F6D10098401C0AD017
:100A20000D20C0018443002E12DD00982B2809D030
:100A30002D280DD103E00020C04315B0F0BD0120EA
:100A400080020443B9696D1C12988847761E009095
:100A500003A9600501D52D2000E02B206A46107304
:100A6000491C0CA80F9102900AE0B9696D1C1298FC
:100A7000884700900120400204431398761E0560C9
:100A8000002E02DD00983028EFD0019900988842AE
:100A900045D18020044308E00998401E09900120B8
:100AA000400204431399681C0860B9696D1C761EE6
:100AB0001298884700903028EED030E001998842A3
:100AC00005D1200603D480200443761E1DE0009843
:100AD00002F054FC002825D0012149020C43009863
:100AE00007AA0F9903323038761E914208D2087057
:100AF0000F98401C0F90200607D50998401E03E070
:100B0000200602D40998401C0990A00502D513992B
:100B1000681C0860B9696D1C129888470090002E07
:100B2000CCDC59E0002E57DD0098652801D045281F
:100B300052D1A00550D5032000028443B9696D1C31
:100B4000761E129888470090002E0CDD2B2804D0CA
:100B50002D2808D1FF2001300443B9696D1C12987B
:100B60008847761E0090E00501D52D2100E02B215D
:100B7000029801700298401C0290019025E001202B
:100B8000400204430EA902980131761E88420ED21B
:100B90000098029930380006000E087003D10299BF
:100BA000019881420AD90298401C029006E0E005B3
:100BB00001D5244801E0234840420990B9696D1CE1
:100BC00012988847009013980560002E04DD009865
:100BD00002F0D4FB0028D2D1F969129888470F9906
:100BE000FF200870029903AA087000200A900B9059
:100BF0000CA90AA8099BFFF76DFEA00502D40120ED
:100C0000C0431AE72420044209D0E00713D1386812
:100C10000B9A0A99031D3B60006806C00BE00B9914
:100C20000A98FFF7C7FC0146E00704D13868021DA7
:100C30003A60006801602846FFE6000000001440AA
:100C40000000F03FF1D8FFFF4268002A08D0016899
:100C50000B78491C002B03D0521E06C01846704763
:100C60000121C160881E70474268002A0BD0C3680A
:100C70000168002B07D183688B4204D0491E521CA7
:100C800006C0002070470020C043704730B5434382
:100C900051435C18010C130C0D465D432C1980B2B6
:100CA00092B20546554351430A0C09044D1962415D
:100CB0005843010C00044019514130BD0EB5054A9E
:100CC00002920022009213460192FFF779FD03B0D1
:100CD00000BD00003304000080B58AB00990099877
:100CE000006A5149FFF7D8FB00280CD1FFE70998AB
:100CF000006A4E49FFF7B4FB002804D1FFE70999C9
:100D000000200862FFE7099840690021FFF7D2FB45
:100D1000002821D1FFE709980890016A806AFFF74F
:100D20001BFA089988620999886A096BFFF78AFBA0
:100D3000002804D1FFE70999086B8862FFE7099949
:100D4000886A496BFFF79AFB002804D1FFE70999ED
:100D5000486B8862FFE703E0099900208862FFE79B
:100D60000999079108690290086A04904869896A9C
:100D7000FFF74BFA0499024602980392FFF745FAEF
:100D80000399FFF7E9F907990246049806928A69E0
:100D90000592496AFFF731FA01460598FFF735FADF
:100DA0000699FFF7D9F90799C8600998C06800212A
:100DB000FFF748FB002809D1FFE709980190016C73
:100DC000C068FFF7C9F90199C860FFE70998C068D2
:100DD0000021FFF753FB002809D1FFE70998009095
:100DE000016CC068FFF709FA0099C860FFE709992C
:100DF000C868896BFFF726FB002804D1FFE7099933
:100E0000886BC860FFE70999C868C96BFFF736FBB4
:100E1000002804D1FFE70999C86BC860FFE709996A
:100E2000486888600AB080BD0000F0410000F0C151
:100E3000811E091F00BFFCD2704784B0039002914D
:100E400001920398006800900098019988430090EF
:100E500000980299019A114008430399086004B070
:100E6000704783B0009101460098029101A9087073
:100E70000298097809014118092042028858022382
:100E80009843885003B0704783B0009101460098A2
:100E9000029101A9087002980978090141180920F6
:100EA0004202885802239843885003B0704783B0A9
:100EB000009101460098029101A9087002980978F2
:100EC000090141180920420288580223184388501A
:100ED00003B0704783B0009101460098029101A9C8
:100EE00008700298097809014118092042028858BF
:100EF00002231843885003B07047000083B000916C
:100F000001460098029101A9087002980978090128
:100F100040185749405880B203B0704783B00091E1
:100F200001460098029101A9087002980978090108
:100F300040184F49405880B203B0704770B50B015C
:100F4000C31854689568254394892C4315695669DC
:100F50002543D48924012C43350125430924640207
:100F60001D51137852781A43BF231A408900401844
:100F7000024944589C43A218425070BD1011000011
:100F800084B0009202460098039202AA1170019068
:100F9000019803991278120189180B4A885004B0FD
:100FA0007047C04684B0009202460098039202AA9D
:100FB0001170019001980399127812018918024A60
:100FC000885004B07047C0460812000084B00092F8
:100FD00002460098039202AA1170019001980399A9
:100FE0001278120189180B4A885004B07047C04625
:100FF00084B0009202460098039202AA11700190F8
:1010000001980399127812018918024A885004B095
:101010007047C0460412000085B000920A4600994D
:10102000019202460198049203AA107002A801805E
:10103000008804991278120189180D4A885005B069
:101040007047C04685B000920A4600990192024658
:101050000198049203AA107002A8018000880499E4
:10106000127812018918024A885005B07047C046AC
:101070000C12000082B001900091009B0199094A76
:1010800088581843885002B07047C04682B001901B
:101090000091009B0199034A88581843885002B078
:1010A0007047C0464810000082B00190009100983F
:1010B000019995225201885002B0704781B000908A
:1010C000009881004B4A885801235B0618438850DA
:1010D00001B0704782B001900091009B0199034AD2
:1010E00088581843885002B07047C0462810000046
:1010F00082B00190009100980199024A885002B094
:101100007047C046D012000081B0009000990120C5
:10111000C2026048885001B07047C04682B001905A
:1011200000910198024940580099084002B0704768
:101130003810000010B584B0069C03900291019213
:1011400000930298019908430099084306990843BF
:101150000349084303998900264A885004B010BD0A
:101160008100040081B0009000988100214A812014
:10117000885001B07047C04681B00090009881004F
:101180001C4A0020885001B07047C04682B00190D0
:10119000009100981049084301998900154A885028
:1011A00002B0704710B584B0079C069C0390029172
:1011B0000192009302980199084300990843069907
:1011C0000843079908430449084303998900094AD9
:1011D000885004B010BDC0468000040082B0019069
:1011E000009100988021084301998900014A8850A4
:1011F00002B070470480424082B001900091019893
:101200002721C90140580099084002B0704782B0B8
:101210000190009101982721C90140580099084088
:1012200002B0704781B0009000991F4A1F48885053
:1012300001B0704782B001900091009B0199034A70
:1012400088581843885002B07047C0469013000079
:1012500082B001900091009B01999D204201885825
:101260001843885002B0704781B00090009909205F
:101270004202885801231B021843885001B070476E
:1012800081B0009000990120C202AC48885001B0A2
:101290007047C0460100002681B000900099024AC4
:1012A0000248885001B0704704080000030000B1F4
:1012B00080B584B0019101460198039102A908808C
:1012C0000398092252028018098803225202FFF76C
:1012D000B4FD04B080BD70B50A780C231A40012417
:1012E000240305196E689E43B2186A604978072284
:1012F0001140035993435918015170BDF0B584B0A2
:1013000001242202344B19680392914319606E49FB
:101310000D686D04FCD5457E25409E69A643741971
:101320009C612024045D03252C40DE69AE43341902
:10133000DC611F4C256805262660466A37681F62F7
:1013400076685E6207262E402660C4697F252D02DE
:10135000DE69AE436406640C3419DC6107684568D5
:1013600082680092C66802690192426902929A6993
:10137000104C14403A07120B2D03ADB2AA18324399
:10138000009D2D072D0D1543019A1543029A154313
:10139000007E2843084A0240101998611868039A91
:1013A0001043186008688005FCD504B0F0BDC04645
:1013B000001340408D00F0FF72FF0F0006490868DF
:1013C0000122904308607047034908680122120215
:1013D000904308607047C04608010B4039490868CF
:1013E00001221203104308607047C04681B00146D5
:1013F0006846017000780249086001B07047C04635
:1014000008030B4080B582B0014601A80180018825
:101410000F2002022B48FFF710FD02B080BDC0462E
:10142000F0B5124B1D46083D2E680124A6432E60E0
:101430000326360330401F68B74338181860186811
:10144000FF26B043C9B240181860286820432860BE
:1014500018682107002A06D0084318601A48016856
:10146000C905FCD5F0BD88431860F0BD10010B40E4
:1014700080B582B0014601A80170017802480322BC
:10148000FFF7DBFC02B080BD00010B4080B582B0ED
:10149000014601A8017001780A483022FFF7CDFC0F
:1014A00002B080BD07498860074802689202FCD5F7
:1014B000012212040B6813430B600168C906FCD5B6
:1014C0007047C04604010B4004020B4009490868FC
:1014D000052210430860704781B000900549042040
:1014E00008600098401E0449086004490020086014
:1014F00001B0704710E000E014E000E018E000E008
:1015000081B000900099DC4A0120885001B07047FA
:1015100082B001900091009B0199F04A88581843CD
:10152000885002B07047C04681B0009000990120F9
:10153000C202F048885001B07047C0460100002642
:1015400081B000900098812149014058C0B201B09B
:10155000704781B0009000980321C902405801B043
:1015600070470000F0B5B44A82183B4BC3180879A5
:101570004E793A4D774C002E23D0202804D00526F2
:10158000F601002803D003E0354E002800D188265C
:10159000576F2F4037435767976F2F4037439767F1
:1015A000566B26405663966B26409663002656651A
:1015B00096658F26F6435F6837405F609F683740C7
:1015C0009F608E79096820280BD0002819D1491E08
:1015D0005160D76E2F4088210F43D766174670376A
:1015E00019E0491E5160D16E29401D4F3943D16623
:1015F000116F29403943116701214907194D1746D9
:1016000009E049085160D76E2F400521C9010F43F9
:10161000D766174670373C682C400C433C60D16A53
:101620004C4C2140D162116B214011630021D164E7
:1016300011658F21C943D46F0C40D4671C680C40DE
:101640001C600643BD2030401168074B0B40C0189A
:10165000801C1060F0BDC0468418000024493E0084
:1016600001040000FFFFFFCF4000FFCFB0B54A6884
:10167000364BC250704A80180A78222A58D89300F4
:1016800001A4E3589F46C046271700003117000009
:101690002717000031170000311700003117000034
:1016A000311700003117000031170000311700001A
:1016B000311700003117000031170000311700000A
:1016C0003117000031170000151700003117000016
:1016D0001517000031170000311700003117000006
:1016E00031170000311700003117000031170000DA
:1016F00031170000311700003117000031170000CA
:1017000031170000311700001517000031170000D5
:101710001517000003231B0704689C4301235B0784
:10172000E318036004E003231B0704689C43046080
:101730000B69C360CB68064C1C40C36A054D1D4055
:101740002B19C362097A11430160B0BD081800006B
:10175000777702008888FDFF81B000900099AA4A3F
:10176000AA48885001B0704782B00190009100985B
:10177000019911221202885002B0704710B5072358
:101780009B04194092008018024A84589C436118B7
:10179000815010BD3018000010B5029CA400001943
:1017A00011431943014A815010BDC0465018000032
:1017B00092008018014A81507047C04610180000FE
:1017C00010B50122120383180C789C604B7883506B
:1017D0008978C84A815010BD10B586B001930B4678
:1017E00001460198059104A90B8003AB1A8002AA57
:1017F00010800598104C001909881B88194312881D
:101800001143024AFFF719FB06B010BD80FF00002C
:1018100082B001900091009801990322D202885071
:1018200002B0704781B000900099034A88580123A4
:101830001843885001B070470418000082B001902E
:10184000009100980199024A885002B07047C04642
:101850004810000010B5002A0CD0B64BC318002069
:101860001C68640705D4DC690C54401C8242F7D123
:10187000104610BD002010BD0811000081B000907E
:10188000009911200202885801231843885001B0A2
:101890007047000082B00190009100980199024ABF
:1018A000885002B07047C0465810000081B00090C8
:1018B000009911200202885801235B0418438850C4
:1018C00001B0704782B001900091009B0199034ADA
:1018D00088581843885002B07047C046281000004E
:1018E00081B0009000990120C2020248885001B0E6
:1018F0007047C0460100002681B000900098812109
:1019000049014058C0B201B0704781B000900098C2
:10191000812149014058C0B201B0704781B00090A8
:101920000098812149014058C0B201B070470000C1
:10193000B0B51122120283580124A34383500B88AF
:101940008C781C438B882343094C1C408358094DD9
:101950001D40631983508B79CC791C43097A21434C
:101960007E231940801842689A4351184160B0BDE7
:1019700018670000E798FDFF81B0009000986D495E
:1019800040580121084001B07047C04681B0009026
:1019900000986849405804210840800801B0704709
:1019A00081B00090009863494058042108408008A5
:1019B00001B0704781B0009000980E494058C0B205
:1019C00001B0704781B0009000980A494058C0B2F9
:1019D00001B0704781B00090009806494058C0B2ED
:1019E00001B0704781B00090009802494058C0B2E1
:1019F00001B070472411000081B000900099024AA4
:101A00000248885001B0704704080000030000B18C
:101A100080B584B003900291019203980B4940185D
:101A200002990B4AFFF709FA03980A4940180199ED
:101A30003F22FFF702FA0399074A881889580122C2
:101A40001140FFF7FAF904B080BDC0461011000044
:101A5000FFFF0000141100000411000010B5012266
:101A6000120383180C789C604978815010BD80B5B2
:101A700082B001900091019811210902401800994B
:101A80000322D203FFF7D9F902B080BD80B584B03C
:101A9000019101460198039102A908700398154A23
:101AA000801809787022FFF7C8F904B080BDC046DD
:101AB00080B582B00190009101980E4940180099BC
:101AC00009020F221202FFF7B8F902B080BDC0462A
:101AD00080B584B0019101460198039102A9087074
:101AE0000398044A801809780722FFF7A6F904B082
:101AF00080BDC0460C11000082B0019068460170A4
:101B00000078019989225201885002B0704782B052
:101B1000019068460170007801998922520188502D
:101B200002B07047034A801802681206FCD4816133
:101B30007047C0460811000080B584B001200290B3
:101B40008102CF48FFF7EAFA014602980391810625
:101B5000CC48FFF7E3FA0399014320480160C078BD
:101B60004007002813D5FFE701200106C548FFF70D
:101B70004EFB002805D1FFE71A490868401C0860A1
:101B800004E018490868401E0860FFE719E01348A0
:101B900040784007002813D5FFE70120C102B8486C
:101BA000FFF735FB002805D1FFE70D490868401E07
:101BB000086004E00A490868401C0860FFE7FFE786
:101BC000FFE7012001908102AD48FFF75FFA01981D
:101BD0008106AC48FFF75AFA04B080BDF402202019
:101BE000980020209400202080B584B002900298B4
:101BF000002804D1FFE703A9002008704AE07F48CD
:101C00000078012810D1FFE77D4801F0BEFBFEF708
:101C1000D1FC029908627949002008701F490870B8
:101C200003A90120087035E07448007800282CD101
:101C3000FFE71A4800780190002804D0FFE70198D8
:101C400001280AD01FE001F0ADF90A4614494A60A4
:101C5000086012490120087016E001F0A3F902465D
:101C600008460F4B59681B68D21A884100210D4B5A
:101C7000D21A884106DBFFE7029900200862074973
:101C80000870FFE700E0FFE7FFE7FFE703A9002098
:101C90000870FFE703A8007804B080BD9C002020F6
:101CA000A8002020D107000080B582B01F48009016
:101CB00001210191094AFFF789F900980199084A21
:101CC000FFF75EF9009801992022FFF7A5F9009827
:101CD0000199FFF7ECF802B080BDC04624311040F6
:101CE000F802202080B582B010480121FFF7B9F832
:101CF000FFE70F48FFF74AFE002804D1FFE70C4832
:101D0000FFF760FEF5E73D4900200870394908708B
:101D100037490870FFF7C8FF0E20019001F022F844
:101D2000019801F05DF802B080BDC04600A04240BD
:101D30000020104080B584B0039002A8018001A962
:101D400000200880FFE701A8008802A909888842CE
:101D50004CDAFFE7039801A90988415C68460170E5
:101D600000787B2807D1FFE721490120087021492D
:101D70000020087035E01E480078002801D1FFE7F8
:101D80002FE0684600787D2817D1FFE7184900202A
:101D900008701A48007800280ED1FFE7154803782C
:101DA00015490022CA540078421C1548FEF7C2F9B2
:101DB000124901200870FFE713E00E4800781C2844
:101DC00008D8FFE700980B4B1A78511C19700A4984
:101DD000885405E006490020087006490870FFE7AE
:101DE000FFE70198401C01A90880ACE704B080BD62
:101DF000370320203603202018032020380320201A
:101E00003903202080B582B0012001061C48FFF76D
:101E1000F3F9002804D1FFE701A9012008702AE0A6
:101E2000012081051748FFF7E7F9002804D1FFE7F3
:101E300001A9022008701EE00120C1031148FFF72C
:101E4000DBF9002804D1FFE701A90320087012E0A4
:101E5000012041040B48FFF7CFF9002804D1FFE728
:101E600001A90420087006E0FFE7FFE7FFE701A9EA
:101E700000200870FFE701A8007802B080BDC046CE
:101E800000200A4000000A4080B582B01248017864
:101E9000491C0170007814281CDBFFE70E49002064
:101EA00008700E48019000780D490870FFF7AAFFEE
:101EB000014601980170007800280AD1FFE7084820
:101EC0000078002805D0FFE705480078054908702C
:101ED000FFE7FFE702B080BD9E0020209F0020208A
:101EE000A00020209D00202081B0009000990020BB
:101EF000086000994860009988600099C86000995E
:101F0000086200994862009988620099C861009946
:101F1000C86201B07047000080B58AB00990099886
:101F2000002801D1FFE7A9E0099840690021FEF7E8
:101F3000C1FA002821D1FFE709980890016A806A58
:101F4000FEF70AF9089988620999886A096BFEF711
:101F500079FA002804D1FFE70999086B8862FFE746
:101F60000999886A496BFEF789FA002804D1FFE7CE
:101F70000999486B8862FFE703E0099900208862AD
:101F8000FFE70999079108690290086A0490486977
:101F9000896AFEF73AF90499024602980392FEF71D
:101FA00034F90399FEF7D8F8079902460498069287
:101FB0008A690592496AFEF720F901460598FEF7FD
:101FC00024F90699FEF7C8F80799C8600998C0680F
:101FD0000021FEF737FA002809D1FFE709980190A0
:101FE000016CC068FEF7B8F80199C860FFE709986E
:101FF000C0680021FEF742FA002809D1FFE70998DE
:102000000090016CC068FEF7F8F80099C860FFE71F
:102010000999C868896BFEF715FA002804D1FFE713
:102020000999886BC860FFE70999C868C96BFEF712
:1020300025FA002804D1FFE70999C86BC860FFE7BB
:102040000998006A0E49FEF727FA00280CD1FFE72D
:102050000998006A0B49FEF703FA002804D1FFE74C
:1020600009990020C860FFE70999486888600999C4
:10207000486AC8620999086A4862FFE70AB080BDE9
:102080000000A0400000A0C080B582B010491148F7
:102090000190FFF7E3FC01980F49FFF749FC019815
:1020A0000021FFF7E4FC01984121C9003522FFF728
:1020B000AFFC019801218902FFF704FC03200221F3
:1020C00000F0E0FE0198FFF7D9FB02B080BDC046EA
:1020D0003C340000000050403E34000080B5034A0C
:1020E00008480021FEF72AFF80BDC04648340000A2
:1020F00080B5034A03480121FEF720FF80BDC0469A
:102100006034000000A0424080B5FFF7F1FFFFF708
:10211000E5FF80BD80B594B00920FFF72DF80A20B7
:10212000FFF72AF8182004210B91FFF757F8012038
:10213000119001025F481290FEF7DAFF1198002318
:1021400008930193C0040A90009014200490082181
:1021500003911A46FFF726F80399089B0A98019302
:102160000090152005901A46FFF71CF80498FEF71A
:10217000A5FF0598FEF7A2FF1F2002210691FFF799
:102180002DF806992020FFF701F806990E20FFF799
:1021900025F806990F20FEF7F9FF06991220FFF7A0
:1021A0001DF80699089B0A980193009013201A467F
:1021B000FEF7F8FF06990898FFF710F806991198AE
:1021C000FEF7E4FF08990A9B1198009142040792D8
:1021D0003320FEF7AFFF079A08990A9B00912E2043
:1021E000FEF7A8FF079A08990A9B00912420FEF7A2
:1021F000A1FF079A08990A9B00912620FEF79AFFF3
:1022000008990A9B11980091020409921A20FEF77E
:1022100091FF0899099A0A9B00911B20FEF78AFFFB
:102220000899099A0A9B00913A20FEF783FF0899C2
:10223000099A0A9B00913520FEF77CFF0B98FEF768
:1022400091FF3020FEF78EFF119881070C91BD4859
:102250000D90FEF729FF0C990D98FEF749FF0D9898
:10226000119909051091FEF7F3FF0D981199890650
:102270000E91FEF7FFFE0D980E99FEF72BFF1199B8
:10228000129849050F91FEF70FFF0F991298FEF76C
:102290002FFF10991298FEF7CDFF1199129889021D
:1022A0001391FEF7E7FE12981399FEF713FF14B08F
:1022B00080BDC04600200A4080B582B00749A548CD
:1022C0000190FFF708F8019803214902FEF7F0FF9B
:1022D0000198FEF7C9FF02B080BDC0467834000007
:1022E00080B582B006499A480190FFF769FA0198D3
:1022F0000449FFF7BBF90198FFF702F902B080BD6E
:102300007A3400008034000080B582B00020009054
:10231000FFF76CF8012001904002FFF773F8009876
:10232000FFF7A6F8FFF74AF8FFF74EF8009A0320E8
:1023300000031146FFF774F80848FEF7DFFF10208E
:10234000FFF7A4F8FFF74AF80098FFF7ABF80198F9
:10235000022100F097FD02B080BDC0469434000019
:1023600080B55020FFF7B8F8FFF7B0F880BD000047
:1023700080B584B0144975480390FFF721FA03989B
:102380001249FFF7EFF803980023029319461A4603
:10239000FFF722FA029B0398009319461A46FFF7AB
:1023A000FBF9029A03981146FFF7E8F9029A03989D
:1023B0000749FFF7FDF90398FFF7A2F803980121F9
:1023C000FFF7D2F904B080BDBC340000C034000077
:1023D0008813000080B582B00A49B1480190FFF728
:1023E000EFF901980849FFF741F901980121FFF73A
:1023F0008FF81320002100F045FD0198FFF780F8C9
:1024000002B080BDC8340000CC34000080B582B07A
:102410000D49B0480190FFF721FB01980B49FFF7E8
:1024200087FA01980021FFF722FB019802210B2275
:10243000FFF7EEFA019801218902FFF743FA0198AC
:10244000FFF71CFA02B080BDE0340000E234000067
:1024500080B500F029F8FFF75DFEFFF755FFFFF7A5
:1024600087FFFFF7B7FFFFF73BFFFFF725FF00F000
:10247000B3F8FFF709FE00F071F8FFF7C7FFFFF7A9
:1024800043FEFFF76DFF0549B82200208854044938
:10249000885404492C22885480BDC0467C012020E9
:1024A000380220204C01202080B58AB025480090B9
:1024B000FEF7B8FE24480190FEF7B4FE23480290D0
:1024C000FFF74AF976480390FFF746F92048049051
:1024D000FFF742F91F480590FEF7DEFE5A480690C6
:1024E000FFF78AFA1C480790FFF786FA38480890E9
:1024F000FFF782FA77480990FFF77EFA0098FEF717
:1025000003FE0198FEF700FE0298FFF70DF803980E
:10251000FFF70AF80498FFF707F80598FEF7B0FEF2
:102520000698FFF7DDF90798FFF7DAF90898FFF743
:10253000D7F90998FFF7D4F91020FEF779FC0AB013
:1025400080BDC04600000A4000200A4000008640CE
:102550000000874000200F400000504080B584B04C
:102560001A491B480390FFF779FA03981949FFF7B6
:10257000DFF903980021FFF77AFA039815212D223D
:10258000FFF746FA039801210291FFF79BF90D200E
:102590000221019100F076FC029903988902FFF76D
:1025A00079F90398FFF782F903982021FFF76EFA73
:1025B00001990398FFF78CFA02990398FFF778FACC
:1025C0000398FFF75BF904B080BDC046EC3400000F
:1025D00000001040EE34000080B582B019491A485E
:1025E0000190FFF73BFA01981849FFF7A1F901980C
:1025F0000021FFF73CFA019815212D22FFF708FA78
:10260000019801210091FFF75DF900990E2000F07B
:1026100039FC009901988902FFF73CF90198FFF70E
:1026200045F901987021FFF731FA01980221FFF76F
:102630004FFA00990198FFF73BFA0198FFF71EF94E
:1026400002B080BDF834000000201040FA340000D1
:1026500080B51348FEF774FF01281FD1FFE711482A
:102660000178491C01700078032814DBFFE70E484D
:10267000007800280BD0FFE7EC481021405EFDF702
:1026800027FF014609480162FEF726FBFFE70549DF
:1026900000200870FFE7FFF7F7FBFFE780BDC046AB
:1026A0000020864017012020160120200400202051
:1026B00080B50848FFF732F90B2806D1FFE7054837
:1026C000FFF790F900F052FCFFE702480B21FFF7FB
:1026D000B5F880BD0080104010B59CB01AA800214C
:1026E00016910170CD481590FEF7CEFB15981699FE
:1026F000FEF714FC01462020401A19A90870C848AA
:10270000FFF74EF900280AD1FFE7C548FFF762F945
:1027100019AB1A78511C1970C2498854FFE7FFE7BA
:1027200019A800780B2800DA60E11BA900200870C6
:102730001AA801780B2048431890FFE718981AA9A7
:102740000A780B2151430A3188420CDAFFE71899C5
:10275000B448415C1B9840181BA90870FFE7189803
:10276000401C1890EAE71AA800780B214143AD48B5
:10277000405C552800D030E11BA800781AA90A78DF
:102780000B215143A74A8918897A884200D024E155
:102790001AA801780B204843A249401840785128D4
:1027A0005CD1FFE71AA8119001780B2013904843E1
:1027B0009C4912914118C87800028978401800B2EB
:1027C000FDF792FE9A4A0F929B4B1093FDF7C2FDC4
:1027D000FDF7CCFE119A129903461398934C14946A
:1027E0002382127850434118487900020979401831
:1027F00000B2FDF779FE0F9A109BFDF7ABFDFDF7D8
:10280000B5FE119A129903461398638212785043C9
:102810004118C87900028979401800B2FDF764FEBA
:102820000F9A109BFDF796FDFDF7A0FE119A1299E5
:1028300003461398A382127850434118487A000245
:10284000097A401800B2FDF74FFE00227B4BFDF7DE
:1028500081FDFDF7AFFE1499C860BDE01AA80178AC
:102860000B204843DC4940184078522847D1FFE705
:102870001AA8099001780B200B904843D6490A9179
:102880004118C87800028978401800B2FDF72CFE84
:10289000674A0C92674B0D93FDF75CFDFDF766FEF2
:1028A000099A0A9903460B98604C0E94E3821278B9
:1028B00050434118487900020979401800B2FDF7E9
:1028C00013FE0C9A0D9BFDF745FDFDF74FFE099A8F
:1028D0000A9903460B982383127850434118C8790C
:1028E00000028979401800B2FDF7FEFD0C9A0D9B9D
:1028F000FDF730FDFDF73AFE0E9948836BE01AA80C
:1029000001780B204843B44940184078532861D1DE
:10291000FFE71AA8059001780B2008904843AE49BC
:1029200006914118C87800028978401800B2FDF776
:10293000DBFD3F221306029300220392FDF7A2FC67
:10294000039A394B0493FDF79DFCFDF733FE059A7E
:10295000069903460898354C0794636012785043F3
:102960004118487900020979401800B2FDF7BCFD12
:10297000029B039AFDF786FC039A049BFDF782FCF9
:10298000FDF718FE059A0699034608982360127809
:1029900050434118C87900028979401800B2FDF708
:1029A000A3FD029B039AFDF76DFC039A049BFDF7C0
:1029B00069FCFDF7FFFD059B069A079904460898F8
:1029C0008C601B7858438218507A0002127A801863
:1029D0008883FFE7FFE7FFE7FFE719980B3819A99E
:1029E00008701A98401C1AA9087099E60C4817A993
:1029F0000422FEF72FFF784A7548009000210191CC
:102A0000FEF7D0FA009801992022FEF71BFB0098F0
:102A10000199FEF75FFA1CB010BDC04600A042400D
:102A2000000010407C042020008066405C042020D0
:102A3000FCA9F1D24D6230404D6200400000594087
:102A400080B586B02848FEF760FF012801D0FFE777
:102A500047E05F48039001210491FEF702FA0398D2
:102A60000499FEF74BFA01462020401A05A9088078
:102A7000FFE71D48FEF78AFF01460020002902906B
:102A80000DD1FFE705A8018801200022009220292E
:102A9000019001D30098019001980290FFE70298FD
:102AA000C00700280AD0FFE70F48FEF78BFF05ABF1
:102AB0001A88511C19800D498854DAE7FFE70A4843
:102AC000FEF764FF002804D1FFE70748FEF77AFF0E
:102AD000F5E705A801880548FFF72CF9FFF7E4F8AA
:102AE000FFE706B080BDC04600201040F80220205D
:102AF00080B582B02348FEF7FFFE0B283FD1FFE7E9
:102B00002048FEF757FF01A908701F4800780028E9
:102B100012D1FFE701A800785B280CD1FFE71D4820
:102B20000078002807D1FFE71749012008701749EE
:102B300000200870FFE721E01348007801281CD12D
:102B4000FFE701A800785D2808D1FFE70E490020C3
:102B500008700E490A780E4988540DE001980B4917
:102B60000B780B4AD0540878401C087001A80178F3
:102B70000448FEF7C1FFFFE7FFE7FFE700E0FFE7DC
:102B800002B080BD00005040180120201901202013
:102B9000B2002020B100202080B582B00C48009007
:102BA000002101910B4AFEF723FA009801990A4A85
:102BB000FEF7F8F9009801992022FEF743FA0098F1
:102BC0000199FEF787F90D2000F046F902B080BDAB
:102BD00000A04240241110407C04202070B590B029
:102BE0000C460546159814990FAE35700EAD2C7035
:102BF0000D920C930BAA11700AA908700020039083
:102C0000099008900790069005A9088004900D98F7
:102C10002E49FDF7FAFA0399FDF714FC002806D1B6
:102C2000FFE70D982949FDF7F0FA029008E00D98AA
:102C30002649FDF7EAFA0121C90748400290FFE75B
:102C40000298FDF765FC05A908800C981F49FDF75F
:102C5000DCFA0021FDF7F6FB002806D1FFE70C980F
:102C60001A49FDF7D2FA019008E00C981749FDF7D0
:102C7000CCFA0121C90748400190FFE70198FDF710
:102C800060FC04900F9906A80170FB2141700E9919
:102C9000817005A94978C1700599017104A9CA78A4
:102CA0004271498881710499090AC17104990172BC
:102CB0000B9941720AA909780122114081726B2196
:102CC000C1720C2100F004FB10B070BD0000204167
:102CD00080B584B000920246009803AB1A7002AA35
:102CE000117001A90870039B09480370F323437016
:102CF000AB238370137801221340C370097811400D
:102D000001716B214171062100F0E2FA04B080BD2F
:102D10001A01202080B582B001A9087001990648E7
:102D200001700A2141706D2181706B21C1700421F5
:102D300000F0CEFA02B080BD2A01202080B582B01A
:102D400001A9087001990648017008214170972176
:102D500081706B21C170042100F0BAFA02B080BD0D
:102D60003A01202081B0014668460170002140569A
:102D7000002809D4FFE7684601781F2001400120A0
:102D8000884016490860FFE701B0704781B00146EE
:102D90006846017000214056002809D4FFE76846C4
:102DA00001781F200140012088400C490860FFE79E
:102DB00001B0704781B0014668460170002140565D
:102DC000002809D4FFE7684601781F200140012050
:102DD000884002490860FFE701B0704780E200E0E8
:102DE00081B001466846017000214056002809D490
:102DF000FFE7684601781F200140012088402049F4
:102E00000860FFE701B0704781B001466846017075
:102E100000214056002809D4FFE7684601781F20AA
:102E200001400120884016490860FFE701B0704763
:102E300081B001466846017000214056002809D43F
:102E4000FFE7684601781F200140012088400C49B7
:102E50000860FFE701B0704781B001466846017025
:102E600000214056002809D4FFE7684601781F205A
:102E700001400120884002490860FFE701B0704727
:102E800000E100E070B582B0024601A80270009136
:102E900000214056002816D4FFE7002401A9085756
:102EA0000322D3431840174A805809578C07E50E70
:102EB000FF24AC40A043009CA401E4B2AC402043FA
:102EC000194088501AE001A908780F2420400838DA
:102ED0000322D34318400A4A8058002549578D07DA
:102EE000EE0EFF25B540A843009DAD01EDB2B54003
:102EF00028432140083919408850FFE702B070BDCF
:102F00001CED00E000E400E080B582B00190FFE736
:102F10000198411E0191002805D0FFE77D20C000E7
:102F200000F003F8F4E702B080BD80B582B00190F4
:102F3000FFE70198411E0191002804D0FFE75020CF
:102F4000FDF776FFF5E702B080BD80B582B00120C5
:102F50000190FFF72FFF0198FFF76AFF0198FFF735
:102F600029FF0198FFF764FF02B080BD81B0694678
:102F70000880009A0A4801210902435C5B00C252A2
:102F8000425C521C4254405C802806DBFFE7044947
:102F90000120020200208854FFE701B07047C046BC
:102FA0005803202080B582B0A848FEF7D2FA00234B
:102FB00001930090009801997D229200FDF794F80A
:102FC00002B080BD80B584B00191014601980391A3
:102FD00002A9087003980978FEF7A4FD04B080BD2B
:102FE00080B582B001900091FFE70098007800283A
:102FF00009D0FFE7019800990978FFF7E3FF0098EF
:10300000401C0090F1E702B080BD000080B592B096
:1030100000200F901190FFF71BFA8948FEF764FF1C
:103020008848FEF761FFFFF790FFFFF7B5FDFEF759
:1030300059FE13200B90FFF7A9FE0B98FFF7E4FE53
:103040008148FEF7EFFB0F998048FEF7E1FB032074
:103050000C90FFF79BFE0C98FFF7D6FE0D200D900D
:10306000FFF794FE0D98FFF7CFFE0F200E90FFF7AD
:103070008DFE0E98FFF7C8FE01201090FFF75EFE50
:103080000F9A10981146FFF723FE6420FFF73CFFCC
:103090001098FFF73FFEFFE76D480078002877D0D3
:1030A000FFE76B480078012810D1FFE771496A48B3
:1030B000FFF796FF6A480121017000220A92084634
:1030C000FFF706FE0A986249087060E060480078E1
:1030D000022819D1FFE762490220087001210891F6
:1030E000002209920846FFF7F3FD3220FFF70CFF9C
:1030F00008980999019100905C4A5D4BFFF76EFDBD
:1031000009985349087041E05148007803281BD1C1
:10311000FFE7524901200690087052494E48059039
:10312000FFF75EFF64200790FFF7EEFE05984E491B
:10313000FFF756FF0698FFF7EDFD0798444A002178
:103140001170FFF7E1FE20E04148007804281BD110
:10315000FFE740494048FFF743FF3D480022027027
:103160003E4802703E480270012003901146FFF76E
:10317000AFFD64200490FFF7C7FE0398FFF7CAFD78
:103180000498FFF7C1FEFFE7FFE7FFE7FFE7FFE770
:1031900032480078002851D0FFE7002130484056DF
:1031A00002284AD1FFE72748FEF71EFD002843D03A
:1031B000FFE724480290FEF7AFFE0298C06820495E
:1031C000C968FCF7C9FF01462B48016000682B491C
:1031D000FDF754F9002804D1FFE727492748086084
:1031E0000CE0254800682649FDF72CF9002804D199
:1031F000FFE7214922480860FFE7FFE71E48006813
:103200000021FDF71FF900280AD1FFE71A480368DB
:103210000021019101200090144AFFF7DFFC0AE031
:103220001548036800200190012100910F4A0846CB
:10323000FFF7D4FCFFE7FFE7FFE7FFE72CE7C04617
:103240000400202048002020002086400000874005
:103250009D00202010350000002010401601202085
:10326000B0002020083500000C3500000000A0410F
:10327000000083420435000090002020000088C137
:103280000000884180B582B001A90880694600200D
:103290000880FFE70C48FEF76FFB00280BD0FFE724
:1032A0000098411C6846018000880849884201DB7B
:1032B000FFE706E0EEE701A801780348FEF727FCE8
:1032C000FFE702B080BDC04600801040411F0000F3
:1032D00080B584B0039002A8017001A90020087095
:1032E0000870FFE701A8007802A9097888420CDA83
:1032F000FFE7039801A90978405CFFF7C3FFFFE7E8
:103300000198401C01A90870ECE704B080BD2021A1
:10331000020C01D010211046020A01D010460839D3
:10332000020901D01046091F820801D01046891EEB
:10333000420801D0881E7047081A7047014800688B
:10334000704700000000202002E008C8121F08C1DA
:10335000002AFAD17047000070470000000000000A
:10336000002001E001C1121F002AFBD170470000BC
:1033700001490860704700000000202030380A280A
:1033800001D2012070470020704730B583B0044659
:10339000FFF7D4FF0546002000900246019001236C
:1033A00021466846FDF784F92846FFF7E1FF0199B9
:1033B000009803B030BD0040404040404040404095
:1033C00041414141414040404040404040404040F8
:1033D0004040404040404005020202020202020218
:1033E00002020202020202202020202020202020AF
:1033F000200202020202020290909090909010101F
:1034000010101010101010101010101010101010BC
:103410001010020202020202888888888888080840
:10342000080808080808080808080808080808081C
:103430000808020202024000B73300000800000042
:103440001800000000300000130000000000000021
:103450000000000000000000000000000000030069
:103460001500000000000000000000000000000047
:103470000000000000000300080004070000000036
:1034800022000000FF5DD0B201000000000000003B
:103490000000000003000000000000000000000029
:1034A00040000000000000000000000002000000DA
:1034B00009000000010000002C00C44108070100C1
:1034C00010270000200100000807F900020000009A
:1034D0008F0100000100000000000000000000005B
:1034E0000400000018000000003000000800000088
:1034F0001800000000300000080000001800000064
:10350000003000007B307D007B317D007B327D0010
:103510007B337D0038350000000020209000000043
:1035200048330000C8350000900020201010000033
:1035300060330000000000000000000000000000F8
:103540000000000000000000000000009A99993E71
:10355000000000000000000000000000000000006B
:10356000000000000000000000000000000000005B
:10357000000000000000C8420000C8C200000000B7
:10358000000000000000000000000000000000003B
:10359000CDCC4C3D000000000000803E000000004B
:1035A000000000000000000000000000000000001B
:1035B00000007A4400007AC400007A4400007AC413
:0835C000000000000000000003
:04000005000000C136
:00000001FF
