:020000040000FA
:1000000068492020C5010000C9010000CB010000A3
:1000100000000000000000000000000000000000E0
:10002000000000000000000000000000413E000051
:100030000000000000000000F13D00004945000004
:10004000D301000039160000D3010000D3010000E5
:10005000D3010000D3010000D3010000D301000050
:1000600000000000D3010000D301000000000000E8
:1000700000000000DD450000D30100006D450000D8
:10008000D3010000D3010000D3010000D301000020
:10009000D3010000D30100000000000000000000B8
:1000A000D3010000D30100000000000000000000A8
:1000B000D301000000000000D3010000D3010000C4
:1000C00000F002F800F052F812A030C808382418E6
:1000D0002D18AC4201D100F049F80FCCA246AB4636
:1000E0000CA730CF2D1B083F3F197C427F1E544484
:1000F0002D090426F441641EAC4201D300F036F809
:100100000126334200D0FB1A3343984754465D46DC
:10011000DFE700007C8300009C83000000000000FB
:10012000103A02D378C878C1FAD8520701D330C840
:1001300030C101D504680C60704700000000000069
:100140007047000000000000002300240025002666
:10015000103A01D378C1FBD8520700D330C100D583
:100160000B6070471FB51FBD10B510BD00F0E4FE59
:100170001146FFF7F7FF04F091FB00F0FCFE03B41B
:10018000FFF7F2FF03BC00F04DFF000070B505461D
:100190000C46164602E00FCC0FC5103E102EFAD2C8
:1001A000082E02D303CC03C5083E042E07D301CC8E
:1001B00001C5361F03E021782970641C6D1C761E72
:1001C000F9D270BD06480047FEE7FEE7FEE7FEE70E
:1001D000FEE7FEE703480449044A054B7047000068
:1001E000C1000000682920206849202068392020AB
:1001F000683920204343514330B55C18010C130C7F
:100200000D4692B25D4380B251432C1905465543C9
:100210000A0C09044D1962415843010C00044019AD
:10022000514130BD70B5054610460C4618430ED0FE
:1002300000210846891A984127DA00210846491BFF
:10024000A04118DA2846214600F0B8FD70BD002C08
:1002500003DA01230022DB0707E000210846491BDF
:10026000A04102DA0022D243530810461946C04684
:10027000C0462A4627E000216842A14100F09EFDC9
:10028000002440428C4121461AE000210846491BC7
:10029000A0410CDA214600205242984103462846EC
:1002A00000F08CFD002440428C41214670BD0020AE
:1002B00052429841002103466842A14100F07EFD70
:1002C000002452429C41234670BDF8B5042A2CD329
:1002D000830712D00B78491C0370401C521E830701
:1002E0000BD00B78491C0370401C521E830704D0AE
:1002F0000B78491C0370401C521E8B079B0F05D0C6
:10030000C91ADF002023DE1B08C90AE0FFF73EFF01
:10031000F8BD1D4608C9FD401C46B4402C4310C022
:10032000121F042AF5D2F308C91A521EF0D40B7812
:10033000491C0370401C521EEAD40B78491C037000
:10034000401C012AE4D409780170F8BDD2B210B57E
:1003500013029A1813049A1800F001F810BD01E076
:1003600004C0091F0429FBD28B0701D50280801C21
:10037000C90700D00270704700290BD0C30702D014
:100380000270401C491E022904D3830702D5028053
:10039000801C891EE3E70022EEE70022DFE7000071
:1003A000002203098B4273D3030A8B4258D3030BF9
:1003B0008B423CD3030C8B4221D312E003460B4308
:1003C0007FD4002243088B4274D303098B425FD34E
:1003D000030A8B4244D3030B8B4228D3030C8B427A
:1003E0000DD30902FF2212BA030C8B4202D3121260
:1003F000090265D0030B8B4219D300E0090AC30B35
:100400008B4201D3CB03C01A5241830B8B4201D3E1
:100410008B03C01A5241430B8B4201D34B03C01ACA
:100420005241030B8B4201D30B03C01A5241C30A42
:100430008B4201D3CB02C01A5241830A8B4201D3B3
:100440008B02C01A5241430A8B4201D34B02C01A9D
:100450005241030A8B4201D30B02C01A5241CDD242
:10046000C3098B4201D3CB01C01A524183098B428D
:1004700001D38B01C01A524143098B4201D34B0176
:10048000C01A524103098B4201D30B01C01A5241D9
:10049000C3088B4201D3CB00C01A524183088B4260
:1004A00001D38B00C01A524143088B4201D34B0049
:1004B000C01A5241411A00D20146524110467047BB
:1004C0005DE0CA0F00D04942031000D340425340C0
:1004D0009C46002203098B422DD3030A8B4212D380
:1004E0008901FC2212BA030A8B420CD389019211B2
:1004F0008B4208D3890192118B4204D389013AD0EF
:10050000921100E08909C3098B4201D3CB01C01AC3
:10051000524183098B4201D38B01C01A52414309D6
:100520008B4201D34B01C01A524103098B4201D3C4
:100530000B01C01A5241C3088B4201D3CB00C01A31
:10054000524183088B4201D38B00C01A5241D9D249
:1005500043088B4201D34B00C01A5241411A00D2CA
:1005600001465241104663465B1001D34042002BC6
:1005700000D54942704763465B1000D3404201B545
:100580000449002802DC491C084000E00846C04637
:10059000C04602BDFFFFFF7F7047704770470000F5
:1005A0000246C80FC00781434B0030B54B405B008B
:1005B0009B0D20D01923DB06C91801231B05994286
:1005C00020DB0324A40704251346AB400BD3002BE8
:1005D00004D1EB0613409B00E34204D401246407DA
:1005E000002312195941FF231B0599420BD2C90060
:1005F0000143500F09E0CB0204D501430803024335
:1006000005D0054830BDFF21C905084330BD084667
:1006100007210905884330BD0000C07FF0B5F94DC2
:100620000C091E092C402E402F468BB0A7437DD0CD
:10063000B543FCD0002E7AD0002CFCD00D465D4096
:10064000ED0F2543AC1BFF25AD0464190894C502CA
:10065000440DC9022143500DDC0204430120C007B0
:1006600001430443D2020191200C110C00958C46E9
:10067000010423468B430A9161460904E24D8A43F3
:100680000991010A7D4449198039097805464D438D
:1006900001266D18F605751B6943C90C640B891C8E
:1006A0004C436418B5012C1B250C2E04B4434C4359
:1006B0004D43210C691889090591009DE90701D076
:1006C0000121C90704912C4601996708CD072F43E2
:1006D0004C08059DE10B4D432D0C2946664675439C
:1006E00002950D4645432E46029D7D1BB441009563
:1006F0000D465D4301942C0C2F040D465543AE4628
:100700002D0C3D43029503947546049C2D04641BF7
:10071000049406D2029C039D641C00267541039537
:10072000029401AC70CC009F7D1B01E03EE162E1D0
:10073000B44109040095079101940599A408614307
:10074000090C0C464443650BE7040C4666467443AB
:10075000A646640B3C43039502947446049DE4044E
:100760002C1B049406D2029C039D641C0026754138
:100770000395029401AC70CC009F7D1BB4410194A1
:100780000C465C430095650FE7000C465443A646B3
:10079000640F3C43039502947446049DE4002C1BB3
:1007A000049406D2029C039D641C002675410395A7
:1007B000029401AC70CC009F7D1BB441AE09AF0622
:1007C000049DC900AD092F43049DA406AD06049500
:1007D000079D344369180791059DE10B4D432D0C8E
:1007E00029466646754302950D4645432E46029DB1
:1007F0007D1BB44100950D465D4301942C0C2F04E4
:100800000D465543AE462D0C3D4302950394754667
:10081000049C2D04641B049406D2029C039D641C5A
:10082000002675410395029401AC70CC009F7D1B9E
:10083000B44101948C050694079C890A61180095BF
:100840000791019C0599A4086143090C0D46454395
:10085000680BEF040D46644665436C0B3C43049FF4
:10086000ED047D1BAC4602D20025641C6841009E4D
:10087000019D371B85410846584301950C46460F9C
:10088000C5005443600F28436546E4002C1B02D288
:100890000025401C6E41019D3F1AB5412846BD0907
:1008A000800628438446A009BF064E020699A40686
:1008B00076180743079D002068410A99079019435D
:1008C0000020099B00906046FF1913434041E20F4E
:1008D00064003A43A4460446D71A8C41A04203D987
:1008E0000120009020463A46C70F941840416246C6
:1008F000D20F2243644664000494009CBE46640008
:10090000D71AA446044602978C417746002F01D19E
:10091000A04204D96046401C8446029A2046C40F77
:10092000A64694184041049A0546D20F22436446D5
:100930006400D31A8D417146002901D1A84202D921
:1009400028461A46641C10430122002800D0164392
:1009500061020020079B891904465C410223002C98
:1009600002DB491813466441089DCE0A2D145D1917
:100970004B056705E10A2C050D1908993E43C90787
:100980006940002B08D0934006D30022761C5141C9
:10099000002B01D1760876001C4A002D43DB15425E
:1009A00041D0AA433FD030460BB0F0BD06180D46EB
:1009B0004D41174C7642AC411AD395181C465C4108
:1009C000134A6D42A24113D3012252054C00D44276
:1009D0000AD15C00D4420BD04B4002D592021143A5
:1009E000E2E749004908DFE75940C90FC90718E0A5
:1009F00000200849D8E7054801420DD10342F7D04D
:100A0000F2E700000000FF07286500000000F07F0B
:100A10000000E0FF0000F87F114859400143C01278
:100A200041400020C0E70123089A9B069A4205DC5A
:100A3000032252078918C90FC907B5E705225207D3
:100A40008918074A1143D2125140ADE770B51546D7
:100A50001C4602460B4628462146FFF7DFFD70BDC7
:100A6000FFFFFF7F30B50346CA02400D1043164D0D
:100A7000164C0A1502D02043002A06DBAA1A002AC7
:100A800012DDD040FF2A0BDC30BD5205520D01D1E2
:100A900040004008AA1A07D4D0404042FF2A01DD96
:100AA000002030BD0028FCDD4A00002B01D00120D1
:100AB00000E00020101801225205D042F0D8C817DB
:100AC000C043604030BD00001E04000000000080F4
:100AD0001F22030C02D10F22000402D0030E03D008
:100AE00004E00020014670470002083A030F01D1DC
:100AF0000001121F830F01D18000921E002801DB2C
:100B00004000521E120551184205C01241181046ED
:100B10007047C10FC90700D040420122920711431C
:100B2000D6E701218907D3E7F0B58B4C0F0925469D
:100B300089B0BD437BD01D092646AE43FAD00E4690
:100B40005E402740F60F3E43254071D024012142EC
:100B5000FBD0FF24AD19A4042D1B039501252D0501
:100B6000DB02DB0AC9022B43C90A29431E01090122
:100B7000040F130F050121431701880B82039143D2
:100B80002D098C46A90B1E438A039543B30B9A0388
:100B900096433F09BA0B9403A74302962E467E4321
:100BA0000497B6464E19D7190C460196544305973B
:100BB0007E43371B7646BF1B3601B646BE0B361941
:100BC00000967646BC043719009C01D3641C00943F
:100BD0006400002F01D001263443029E049F754318
:100BE00066467E430496760034196E0034190094EC
:100BF000029C019E1C196643751BAE460694654611
:100C00004519059C05956C43594375460891691A29
:100C10000191049E01465143A41B0491611A009C5A
:100C20000791E10605D061090122114302E072E05B
:100C30006EE06109089D00272C0A2D066918049DA5
:100C40007C412A0A2D066918019D6241AC0DAD0256
:100C50006D185441079A910D920255196141029AFB
:100C6000644658435443069B059A5A43121A131B71
:100C70009A0E9B015B187A41010B0005C318514184
:100C8000220A200644195A419A4200D2491C0120E6
:100C90004002814203D315230226F64302E01423C7
:100CA0000326F6432020C51AA9401746AF40DA4074
:100CB0000A4320460399D84009147318190551189E
:100CC000039A3843D2075140AC4009D001229440E6
:100CD00006D30022401C5141002C01D140084000A5
:100CE0001E4A934212D3012203989206904207DBD8
:100CF0000520400709181A480143C012414004E08A
:100D0000032040070818C10FC907002009B0F0BD33
:100D10000020F107FAE705180C464C4111486D42D6
:100D2000A04115D394181A465A410E486442904186
:100D30000ED301204A004005824209D35A00824264
:100D400006D35940C90F084AC90700201143DDE7FF
:100D500000200649DAE700000000FF07FE07000058
:100D6000FFFFFF7F0000E0FF0000F07F0000F87F42
:100D700010B501469E240002CA15A307002A02D01E
:100D80001843002A04DBA21A002A0CDDD04010BD53
:100D90001206120E01D140004008A21A03D4D0401E
:100DA00040420028F3DDFF2248001206904201D99C
:100DB000002010BDC817C043584010BDFEB5044602
:100DC00010460D46184373D0A6468C460020A41A40
:100DD00001469D4167D36646002701243D46B61A69
:100DE0009D4102D313463A462124654676462F0498
:100DF000360C3E432D0CB61A9D4104D3150C1B0432
:100E00002B4312041034654676462F06360A3E43BD
:100E10002D0AB61A9D4104D3150E1B022B43120254
:100E20000834654676462F0736093E432D09B61A23
:100E30009D4104D3150F1B012B431201241D654650
:100E40007646AF07B6083E43AD08B61A9D4104D3B7
:100E5000950F9B002B439200A41C65467646EF0736
:100E600076083E436D08B61A9D411AD392185B412D
:100E7000641C16E00018764665464941B71A9D4144
:100E80000191009009D36046B11A98418E4684467C
:100E9000009801990025401C6941DD0752082A434A
:100EA0005B08641EE6D57246634603B0F0BDFFE7FB
:100EB0002046284307D00020C0430146C046C04614
:100EC00022462B46F1E700200146F7E7004870472D
:100ED000C800202010B5FF231B0644009C421DD8EB
:100EE0004C009C421AD80346124A0B4307D4401ABE
:100EF00002D3EFF3008010BDEFF3008010BD081A9D
:100F000003D3EFF30080904305E0EFF3008001216D
:100F10009043C907084380F3008810BD0D231B04CC
:100F20001A4204D01146002000F02DF810BD00F048
:100F300041F810BD000000907546FFF7C7FFAE46B0
:100F4000050069465346C008C000854618B020B564
:100F5000FFF740F960BCB64600260027C0C5C0C5F3
:100F6000C0C5C0C5C0C5C0C5C0C5C0C5403D490895
:100F700049008D46704710B50446C046C04620461D
:100F8000FFF7FDF810BDC80212D54803400F002836
:100F900004D0C803C043012188407047EFF30080AC
:100FA0000001000903210907084380F30088704706
:100FB0000020704710B5024800F004F810BD000092
:100FC0000000C07F10B50C461107090F092904D095
:100FD0000A290AD008290CD104E011460820FFF79D
:100FE000D2FF06E0510606D501E0510601D50120E9
:100FF000C007214610BDD10607D501010909CC085B
:101000004907000E0006044309E0410F200249078A
:10101000000A0143200E00061D22D141014308466B
:10102000E7E7000001491820ABBEFEE726000200FA
:101030007047811E091F00BFFCD27047B0B55368CE
:1010400094681C4393892343146955691C43D389CD
:101050002B431B0123430C01041909256D02635125
:10106000137852781A43BF231A4089004018034965
:1010700044589C43A2184250B0BDC0461011000015
:10108000F0B582B0002A31D091235B01C318022051
:10109000801A0190009255420F2006020320DC695D
:1010A000344227D00F18FC1E24781C602C18022C08
:1010B0001AD0DA6932421FD0BA1E12781A60019A29
:1010C0001218032A10D0DA69324217D07A1E127829
:1010D0001A60002C08D0DA69324208D00A5C1A6023
:1010E000001D2A18032ADAD1009800E0002080B2FF
:1010F00002B0F0BDC01EFAE7801EF8E7401EF6E71A
:1011000070B50A780C231A400124240305196E686F
:101110009E43B2186A6049780722114003599343ED
:101120005918015170BD0000F0B584B001242202AD
:101130002A4B196803929143196049490D686D045F
:10114000FCD5457E25409E69A64374199C612024E8
:10115000045D03252C40DE69AE433419DC61204C6C
:10116000256805262660466A37681F6276685E62D3
:1011700007262E402660C4697F252D02DE69AE4316
:101180006406640C3419DC61076845688268009263
:10119000C66802690192426902929A69114C144030
:1011A0003A07120B2D03ADB2AA183243009D2D074A
:1011B0002D0D1543019A1543029A1543007E2843CD
:1011C000094A0240101998611868039A1043186080
:1011D00008688005FCD504B0F0BDC04608010B408E
:1011E000001340408D00F0FF72FF0F00F0B5124B6E
:1011F0001D46083D2E680124A6432E6003263603B3
:1012000030401F68B743381818601868FF26B0438D
:10121000C9B2401818602868204328601868210760
:10122000002A06D0084318600D480168C905FCD59E
:10123000F0BD88431860F0BD10010B40074988607D
:10124000074802689202FCD5012212040B6813437E
:101250000B600168C906FCD57047C04604010B400D
:1012600004020B40F0B582B07B4E844A8518894A4F
:10127000821801923B4A83180A794C793A4F012C23
:1012800026D1202A04D00524E401002A03D003E05B
:10129000364C002A00D188249E683E4026439E603A
:1012A000DE683E402643DE60AC686D4E3440AC6084
:1012B000EC683440EC600024019EB460F4608F243C
:1012C000E4439E6926409E61DE692640DE61624EEF
:1012D00080198E790C68202A009208D0191D002AE6
:1012E00015D1641E44601A683A40882415E0611ED6
:1012F0004160196839401D4A1143196059683940E5
:101300001143596001214C07194F014607E062085B
:1013100042601A683A400524E40122431A600A68D0
:101320003A4022430A6029684D4A114029606968A1
:10133000114069600021019A116051608F21C943F9
:101340001A690A401A615A690A405A6100990E43A3
:10135000BD2131400268074B1340C918891C016048
:1013600002B0F0BD7018000024493E0001040000E6
:10137000FFFFFFCF4000FFCF70B5374A82184B68A0
:1013800053603E4BC3180878222857D8840001A523
:101390002C59A746331400003D14000033140000FC
:1013A0003D1400003D1400003D1400003D140000F9
:1013B0003D1400003D1400003D1400003D140000E9
:1013C0003D1400003D1400003D1400003D140000D9
:1013D0003D140000211400003D1400002114000001
:1013E0003D1400003D1400003D1400003D140000B9
:1013F0003D1400003D1400003D1400003D140000A9
:101400003D1400003D1400003D1400003D14000098
:101410003D140000211400003D14000021140000C0
:10142000032424071568A543012464072C191460BC
:1014300004E0032424071568A54315600C69D460F3
:10144000CC68064D25401C68054E264074191C606A
:10145000097A0143116070BD04180000777702001B
:101460008888FDFF10B507239B041940920080185F
:10147000024A84589C436118815010BD3018000006
:1014800010B5029CA400001911431943014A815070
:1014900010BDC0465018000092008018014A8150CB
:1014A0007047C0461018000010B5012212038318BF
:1014B0000C789C604B7883508978014A815010BD2C
:1014C0000C110000F0B581B0002A27D0384BC318AA
:1014D00054420092D21E00201E68760728D4DE698E
:1014E0000E5427187E1C16D21E68760719D40E18C3
:1014F000DD697570BD1C0ED01D686D0714D4DD69E3
:10150000B570824207D01D686D0710D4DD69F57093
:10151000001D2518E0D1009801B0F0BD002001B0F9
:10152000F0BD401C01B0F0BD801C01B0F0BDC01C7E
:1015300001B0F0BDB0B51122120283580124A343BB
:1015400083508B780C881C438B882343094C1C40A8
:101550008358094D1D402B1983508B79CC791C433E
:10156000097A21437E231940801842689A43511812
:101570004160B0BD18670000E798FDFF10B501227B
:10158000120383180C789C604978815010BD0000CC
:10159000074A80180268120608D50268120605D5A7
:1015A0000268120602D502681206F3D48161704700
:1015B00008110000B0B51D4805781D4C20780028A2
:1015C00011D0681E012817D803F05CF902461948AB
:1015D00003680020D21A8141653A814124DB002250
:1015E000227001201EE0042D0DD30120207003F095
:1015F00049F90246002015E003F044F90246042DA3
:1016000003D300200EE00020B0BD0A48036800208C
:10161000D21A8141FF23F633D21A814104DB002222
:101620002270104603490A60B0BDC0465006202013
:101630003C01202040012020F0B5012291021448F5
:101640000346103B1C680C409306124A1546103D99
:101650002D681D402E19104F3E60002D09D1002C21
:101660000FD0274C26680E4C2568360507D56D1E11
:1016700006E0244C2668094C2568F601F7D56D1C58
:10168000256004680C430460106818431060F0BDC6
:1016900048300A4048100A40B0072020440120206A
:1016A0004801202014480178491C0170C9B214294E
:1016B00020D30021017011480178114A1368DB051D
:1016C00001D4012115E00F4B1B68DB0401D402217A
:1016D0000FE013681B0201D403210AE01268520EC6
:1016E00004231A4053400370002A03D0002901D07C
:1016F000054801707047C0464D0120204E01202052
:1017000080330A4080130A404C012020012802D077
:10171000022804D11146086800220A6070470020A0
:1017200070470000B0B50D48016801221143016007
:10173000500428490860D004274B186190041860B1
:1017400010040861254C002520462946FFF7A4FE19
:10175000204629462A46FFF79FFEB0BD0438864042
:1017600070B57D22D30099420A4600DB1A46184B19
:101770009A4200DC1A4602280FD0012826D113B263
:1017800001204204C404134D134E1448002912D4FE
:101790002A6034610122194616E013B201200204C6
:1017A00084040C4D0C4E0D48002909D42A60346184
:1017B0000022194608E034602A615942012203E000
:1017C00034602A6159420022FFF766FE70BDC046B0
:1017D00018FCFFFF90120A4090320A400020864019
:1017E000B0B502480346F833802401E058012020B8
:1017F000002119701A46083A11701A46103A1170F1
:101800001A46183A11701A46203A11701A46283AA8
:1018100011701A46303A11701A46383A11701A4649
:10182000403A11701A46483A11701A46503A1170EF
:101830001A46583A11701A46603A11701A46683AB8
:1018400011701A46703A11701A46783A11701A4699
:10185000803A11701A46883A11701A46903A1170FF
:101860001A46983A11701A46A03A11701A46A83AC8
:1018700011701A46B03A11701A46B83A11701A46E9
:10188000C03A11701A46C83A11701A46D03A11700F
:101890001A46D83A11701A46E03A11701A46E83AD8
:1018A00011701A46F03A11701A46F83A1170012276
:1018B00012029B18203C9BD10446F93480232170EE
:1018C0002546083D29702546103D29702546183DBE
:1018D00029702546203D29702546283D297025463A
:1018E000303D29702546383D29702546403D2970F8
:1018F0002546483D29702546503D29702546583DCE
:1019000029702546603D29702546683D2970254689
:10191000703D29702546783D29702546803D297007
:101920002546883D29702546903D29702546983DDD
:1019300029702546A03D29702546A83D29702546D9
:10194000B03D29702546B83D29702546C03D297017
:101950002546C83D29702546D03D29702546D83DED
:1019600029702546E03D29702546E83D2970254629
:10197000F03D2970A518F83C2170203B2C469ED1E3
:101980000446FA34802321702546083D29702546F7
:10199000103D29702546183D29702546203D2970A7
:1019A0002546283D29702546303D29702546383D7D
:1019B00029702546403D29702546483D2970254619
:1019C000503D29702546583D29702546603D2970B7
:1019D0002546683D29702546703D29702546783D8D
:1019E00029702546803D29702546883D2970254669
:1019F000903D29702546983D29702546A03D2970C7
:101A00002546A83D29702546B03D29702546B83D9C
:101A100029702546C03D29702546C83D29702546B8
:101A2000D03D29702546D83D29702546E03D2970D6
:101A30002546E83D29702546F03D2970A518F83C5B
:101A40002170203B2C469ED10446FB34802321701C
:101A50002546083D29702546103D29702546183D2C
:101A600029702546203D29702546283D29702546A8
:101A7000303D29702546383D29702546403D297066
:101A80002546483D29702546503D29702546583D3C
:101A900029702546603D29702546683D29702546F8
:101AA000703D29702546783D29702546803D297076
:101AB0002546883D29702546903D29702546983D4C
:101AC00029702546A03D29702546A83D2970254648
:101AD000B03D29702546B83D29702546C03D297086
:101AE0002546C83D29702546D03D29702546D83D5C
:101AF00029702546E03D29702546E83D2970254698
:101B0000F03D2970A518F83C2170203B2C469ED151
:101B10000446FC34802321702546083D2970254663
:101B2000103D29702546183D29702546203D297015
:101B30002546283D29702546303D29702546383DEB
:101B400029702546403D29702546483D2970254687
:101B5000503D29702546583D29702546603D297025
:101B60002546683D29702546703D29702546783DFB
:101B700029702546803D29702546883D29702546D7
:101B8000903D29702546983D29702546A03D297035
:101B90002546A83D29702546B03D29702546B83D0B
:101BA00029702546C03D29702546C83D2970254627
:101BB000D03D29702546D83D29702546E03D297045
:101BC0002546E83D29702546F03D2970A518F83CCA
:101BD0002170203B2C469ED10446FD348023217089
:101BE0002546083D29702546103D29702546183D9B
:101BF00029702546203D29702546283D2970254617
:101C0000303D29702546383D29702546403D2970D4
:101C10002546483D29702546503D29702546583DAA
:101C200029702546603D29702546683D2970254666
:101C3000703D29702546783D29702546803D2970E4
:101C40002546883D29702546903D29702546983DBA
:101C500029702546A03D29702546A83D29702546B6
:101C6000B03D29702546B83D29702546C03D2970F4
:101C70002546C83D29702546D03D29702546D83DCA
:101C800029702546E03D29702546E83D2970254606
:101C9000F03D2970A518F83C2170203B2C469ED1C0
:101CA0000446FE34802321702546083D29702546D0
:101CB000103D29702546183D29702546203D297084
:101CC0002546283D29702546303D29702546383D5A
:101CD00029702546403D29702546483D29702546F6
:101CE000503D29702546583D29702546603D297094
:101CF0002546683D29702546703D29702546783D6A
:101D000029702546803D29702546883D2970254645
:101D1000903D29702546983D29702546A03D2970A3
:101D20002546A83D29702546B03D29702546B83D79
:101D300029702546C03D29702546C83D2970254695
:101D4000D03D29702546D83D29702546E03D2970B3
:101D50002546E83D29702546F03D2970A518F83C38
:101D60002170203B2C469ED1FF3080230170044619
:101D7000083C21700446103C21700446183C217038
:101D80000446203C21700446283C21700446303C27
:101D900021700446383C21700446403C21700446C2
:101DA000483C21700446503C21700446583C217048
:101DB0000446603C21700446683C21700446703C37
:101DC00021700446783C21700446803C2170044612
:101DD000883C21700446903C21700446983C217058
:101DE0000446A03C21700446A83C21700446B03C47
:101DF00021700446B83C21700446C03C2170044662
:101E0000C83C21700446D03C21700446D83C217067
:101E10000446E03C21700446E83C21700446F03C56
:101E200021708418F8380170203B20469ED101F0C3
:101E300017FBB0BD10B582B0012837D000286AD199
:101E40006846A621417000210170AB4C20688006D5
:101E500008D42068800605D42068800602D4206853
:101E60008006F3D59A4869460222FFF709F9204611
:101E700008380168974A0A4078320260201F0168DA
:101E8000954A0A409549511801604B20C00002F064
:101E9000E7FC206880063ED4206880063BD420689A
:101EA000800638D420688006F3D534E001A8A72145
:101EB000417000210170904C2068800608D4206891
:101EC000800605D42068800602D420688006F3D5F9
:101ED0007F4801A90222FFF7D3F82046083801689D
:101EE0007C4A0A4078320260201F01687A4A0A4020
:101EF0007A49511801604B20C00002F0B1FC206803
:101F0000800608D42068800605D42068800602D4A4
:101F100020688006F3D502B010BDC046F0B585B08C
:101F200001286BD0002800D0D0E001A8C821417062
:101F3000002100910170704E3068800608D430682E
:101F4000800605D43068800602D430688006F3D558
:101F50005F4801A90222FFF793F83746083F386827
:101F60005C49084078303860341F20685A4908407E
:101F70005A49401820604B20C500284602F070FCEA
:101F80003068800608D43068800605D43068800642
:101F900002D430688006F3D502A8A12141700099CF
:101FA00001703068800608D43068800605D4306837
:101FB000800602D430688006F3D502A90222444884
:101FC000FFF75EF8386843490840782101433960DB
:101FD000206841490840414908432060284602F0F2
:101FE0003FFC3068800671D4306880066ED430685B
:101FF00080066BD430688006F3D567E003A8C02163
:1020000041700021009101703B4E3068800608D479
:102010003068800605D43068800602D430688006B7
:10202000F3D52B4803A90222FFF72AF83746083FC9
:1020300038682849084078303860341F20682649BD
:1020400008402649401820604B20C500284602F071
:1020500007FC3068800608D43068800605D43068F4
:10206000800602D430688006F3D504A8A021417010
:10207000009901703068800608D43068800605D465
:102080003068800602D430688006F3D504A90222A5
:102090000F48FEF7F5FF38680E49084078210143E4
:1020A000396020680C4908400C49084320602846E4
:1020B00002F0D6FB3068800608D43068800605D46C
:1020C0003068800602D430688006F3D505B0F0BDD4
:1020D00000000F4000F8FFFFF8FF00F007000200CB
:1020E000F0B587B0642002F0ABFB06A8AE214170CA
:1020F00000270770004C01E018120F40206880068E
:1021000008D42068800605D42068800602D42068A0
:102110008006F3D50D4806A90222FEF7B1FF21463D
:10212000083908680A4A1040783005910860211F74
:102130000868084A1040084A8018049108604B203B
:10214000C000039002F08CFB08E0C04600000F4086
:1021500000F8FFFFF8FF00F007000200206880068B
:1021600008D42068800605D42068800602D4206840
:102170008006F3D506A8477007702068800608D44B
:102180002068800605D42068800602D42068800676
:10219000F3D506A902220B48FEF772FF05990868DD
:1021A000094A104078220292104308600499086896
:1021B000064A1040064A10430860039802F050FB9C
:1021C00008E0C04600000F4000F8FFFFF8FF00F0F5
:1021D000070002002068800608D42068800605D425
:1021E0002068800602D420688006F3D506A8102156
:1021F000417007702068800608D42068800605D4E6
:102200002068800602D420688006F3D506A9022241
:102210000A48FEF735FF05990868094A1040029AF6
:102220001043086004990868064A1040064A1043A3
:102230000860039802F014FB08E0C04600000F405D
:1022400000F8FFFFF8FF00F007000200206880069A
:1022500008D42068800605D42068800602D420684F
:102260008006F3D506A840264670077020688006D1
:1022700008D42068800605D42068800602D420682F
:102280008006F3D506A902220A48FEF7F9FE059951
:102290000868094A1040029A1043086004990868C7
:1022A000064A1040064A10430860039802F0D8FA24
:1022B00008E0C04600000F4000F8FFFFF8FF00F004
:1022C000070002002068800608D42068800605D434
:1022D0002068800602D420688006F3D506A88121F4
:1022E000417007702068800608D42068800605D4F5
:1022F0002068800602D420688006F3D506A9022251
:102300000A48FEF7BDFE05990868094A1040029A7E
:102310001043086004990868064A1040064A1043B2
:102320000860039802F09CFA08E0C04600000F40E5
:1023300000F8FFFFF8FF00F00700020020688006A9
:1023400008D42068800605D42068800602D420685E
:102350008006F3D506A8CF2141700770206880065B
:1023600008D42068800605D42068800602D420683E
:102370008006F3D506A902220A48FEF781FE0599D8
:102380000868094A1040029A1043086004990868D6
:10239000064A1040064A10430860039802F060FAAB
:1023A00008E0C04600000F4000F8FFFFF8FF00F013
:1023B000070002002068800608D42068800605D443
:1023C0002068800602D420688006F3D506A8A121E3
:1023D000417007702068800608D42068800605D404
:1023E0002068800602D420688006F3D506A9022260
:1023F0000A48FEF745FE05990868094A1040029A06
:102400001043086004990868064A1040064A1043C1
:102410000860039802F024FA08E0C04600000F406C
:1024200000F8FFFFF8FF00F00700020020688006B8
:1024300008D42068800605D42068800602D420686D
:102440008006F3D506A8C821417007702068800671
:1024500008D42068800605D42068800602D420684D
:102460008006F3D506A902220A48FEF709FE05995F
:102470000868094A1040029A1043086004990868E5
:10248000064A1040064A10430860039802F0E8F933
:1024900008E0C04600000F4000F8FFFFF8FF00F022
:1024A000070002002068800608D42068800605D452
:1024B0002068800602D420688006F3D506A8A621ED
:1024C0000191417007702068800608D4206880065A
:1024D00005D42068800602D420688006F3D506A9BA
:1024E00002220A48FEF7CCFD05990868084A104008
:1024F000029A1043086004990868064A1040064A88
:1025000010430860039802F0ABF907E000000F40A9
:1025100000F8FFFFF8FF00F00700020020688006C7
:1025200008D42068800605D42068800602D420687C
:102530008006F3D506A8A8214170077020688006A0
:1025400008D42068800605D42068800602D420685C
:102550008006F3D506A902220A48FEF791FD0599E7
:102560000868094A1040029A1043086004990868F4
:10257000064A1040064A10430860039802F070F9BA
:1025800008E0C04600000F4000F8FFFFF8FF00F031
:10259000070002002068800608D42068800605D461
:1025A0002068800602D420688006F3D506A83F2163
:1025B000417007702068800608D42068800605D422
:1025C0002068800602D420688006F3D506A902227E
:1025D0000A48FEF755FD05990868094A1040029A15
:1025E0001043086004990868064A1040064A1043E0
:1025F0000860039802F034F908E0C04600000F407C
:1026000000F8FFFFF8FF00F00700020020688006D6
:1026100008D42068800605D42068800602D420688B
:102620008006F3D506A8D321417007702068800684
:1026300008D42068800605D42068800602D420686B
:102640008006F3D506A902220A48FEF719FD05996E
:102650000868094A1040029A104308600499086803
:10266000064A1040064A10430860039802F0F8F842
:1026700008E0C04600000F4000F8FFFFF8FF00F040
:10268000070002002068800608D42068800605D470
:102690002068800602D420688006F3D506A847701B
:1026A00007702068800608D42068800605D420685A
:1026B000800602D420688006F3D506A902220A48C3
:1026C000FEF7DEFC05990868084A1040029A10439C
:1026D000086004990868064A1040064A10430860DA
:1026E000039802F0BDF807E000000F4000F8FFFF7C
:1026F000F8FF00F0070002002068800608D4206878
:10270000800605D42068800602D420688006F3D5B0
:1027100006A8D521417007702068800608D420687B
:10272000800605D42068800602D420688006F3D590
:1027300006A902220A48FEF7A3FC05990868094A7F
:102740001040029A1043086004990868064A104035
:10275000064A10430860039802F082F808E0C04679
:1027600000000F4000F8FFFFF8FF00F00700020034
:102770002068800608D42068800605D4206880067A
:1027800002D420688006F3D506A88025457007701E
:102790002068800608D42068800605D4206880065A
:1027A00002D420688006F3D506A902220A48FEF763
:1027B00067FC05990868094A1040029A10430860AE
:1027C00004990868064A1040064A104308600398B6
:1027D00002F046F808E0C04600000F4000F8FFFF96
:1027E000F8FF00F0070002002068800608D4206887
:1027F000800605D42068800602D420688006F3D5C0
:1028000006A8D921417007702068800608D4206886
:10281000800605D42068800602D420688006F3D59F
:1028200006A902220A48FEF72BFC05990868094A06
:102830001040029A1043086004990868064A104044
:10284000064A10430860039802F00AF808E0C04600
:1028500000000F4000F8FFFFF8FF00F00700020043
:102860002068800608D42068800605D42068800689
:1028700002D420688006F3D506A8F12141700770C4
:102880002068800608D42068800605D42068800669
:1028900002D420688006F3D506A902220A48FEF772
:1028A000EFFB05990868094A1040029A1043086036
:1028B00004990868064A1040064A104308600398C5
:1028C00001F0CEFF08E0C04600000F4000F8FFFF17
:1028D000F8FF00F0070002002068800608D4206896
:1028E000800605D42068800602D420688006F3D5CF
:1028F00006A8DA21417007702068800608D4206895
:10290000800605D42068800602D420688006F3D5AE
:1029100006A902220A48FEF7B3FB05990868094A8E
:102920001040029A1043086004990868064A104053
:10293000064A10430860039801F092FF08E0C04681
:1029400000000F4000F8FFFFF8FF00F00700020052
:102950002068800608D42068800605D42068800698
:1029600002D420688006F3D506A8122141700770B2
:102970002068800608D42068800605D42068800678
:1029800002D420688006F3D506A902220A48FEF781
:1029900077FB05990868094A1040029A10430860BD
:1029A00004990868064A1040064A104308600398D4
:1029B00001F056FF08E0C04600000F4000F8FFFF9E
:1029C000F8FF00F0070002002068800608D42068A5
:1029D000800605D42068800602D420688006F3D5DE
:1029E00006A8DB21417007702068800608D42068A3
:1029F000800605D42068800602D420688006F3D5BE
:102A000006A902220A48FEF73BFB05990868094A15
:102A10001040029A1043086004990868064A104062
:102A2000064A10430860039801F01AFF08E0C04608
:102A300000000F4000F8FFFFF8FF00F00700020061
:102A40002068800608D42068800605D420688006A7
:102A500002D420688006F3D506A846700770206867
:102A6000800608D42068800605D42068800602D439
:102A700020688006F3D506A902220A48FEF700FB6B
:102A800005990868084A1040029A104308600499A2
:102A90000868064A1040064A10430860039801F08F
:102AA000DFFE07E000000F4000F8FFFFF8FF00F036
:102AB000070002002068800608D42068800605D43C
:102AC0002068800602D420688006F3D506A820215D
:102AD000417007702068800608D42068800605D4FD
:102AE0002068800602D420688006F3D506A9022655
:102AF0000A483246FEF7C4FA05990868084A1040A9
:102B0000029A1043086004990868064A1040064A71
:102B100010430860039801F0A3FE07E000000F4097
:102B200000F8FFFFF8FF00F00700020020688006B1
:102B300008D42068800605D42068800602D4206866
:102B40008006F3D506A8467007702068800608D472
:102B50002068800605D42068800602D4206880069C
:102B6000F3D506A902220A48FEF78AFA05990868F1
:102B7000084A1040029A1043086004990868064AFF
:102B80001040064A10430860039801F069FE07E010
:102B900000000F4000F8FFFFF8FF00F00700020000
:102BA0002068800608D42068800605D42068800646
:102BB00002D420688006F3D506A88D2141700770E5
:102BC0002068800608D42068800605D42068800626
:102BD00002D420688006F3D506A902220A48FEF72F
:102BE0004FFA05990868094A1040029A1043086094
:102BF00004990868064A1040064A10430860039882
:102C000001F02EFE08E0C04600000F4000F8FFFF74
:102C1000F8FF00F0070002002068800608D4206852
:102C2000800605D42068800602D420688006F3D58B
:102C300006A81421417007702068800608D4206817
:102C4000800605D42068800602D420688006F3D56B
:102C500006A902220A48FEF713FA05990868094AEC
:102C60001040029A1043086004990868064A104010
:102C7000064A10430860039801F0F2FD08E0C046E0
:102C800000000F4000F8FFFFF8FF00F0070002000F
:102C90002068800608D42068800605D42068800655
:102CA00002D420688006F3D506A8A42141700770DD
:102CB0002068800608D42068800605D42068800635
:102CC00002D420688006F3D506A902220A48FEF73E
:102CD000D7F905990868094A1040029A104308601C
:102CE00004990868064A1040064A10430860039891
:102CF00001F0B6FD08E0C04600000F4000F8FFFFFD
:102D0000F8FF00F0070002002068800608D4206861
:102D1000800605D42068800602D420688006F3D59A
:102D200006A80199417007702068800608D42068C1
:102D3000800605D42068800602D420688006F3D57A
:102D400006A902220A48FEF79BF905990868094A74
:102D50001040029A1043086004990868064A10401F
:102D6000064A10430860039801F07AFD08E0C04667
:102D700000000F4000F8FFFFF8FF00F0070002001E
:102D80002068800608D42068800605D42068800664
:102D900002D420688006F3D506A8AF2141700770E1
:102DA0002068800608D42068800605D42068800644
:102DB00002D420688006F3D506A902220A48FEF74D
:102DC0005FF905990868094A1040029A10430860A3
:102DD00004990868064A1040064A104308600398A0
:102DE00001F03EFD08E0C04600000F4000F8FFFF84
:102DF000F8FF00F0070002002068800608D4206871
:102E0000800605D42068800602D420688006F3D5A9
:102E100001480246F83201E058012020177011469F
:102E200008390F70114610390F70114618390F709C
:102E3000114620390F70114628390F70114630396C
:102E40000F70114638390F70114640390F70114616
:102E500048390F70114650390F70114658390F70AC
:102E6000114660390F70114668390F70114670397C
:102E70000F70114678390F70114680390F70114666
:102E800088390F70114690390F70114698390F70BC
:102E90001146A0390F701146A8390F701146B0398C
:102EA0000F701146B8390F701146C0390F701146B6
:102EB000C8390F701146D0390F701146D8390F70CC
:102EC0001146E0390F701146E8390F701146F0399C
:102ED0000F701146F8390F70012109025218203D78
:102EE0009CD10346F93380221F701C46083C277092
:102EF0001C46103C27701C46183C27701C46203C82
:102F000027701C46283C27701C46303C27701C4606
:102F1000383C27701C46403C27701C46483C2770B4
:102F20001C46503C27701C46583C27701C46603C91
:102F300027701C46683C27701C46703C27701C4656
:102F4000783C27701C46803C27701C46883C2770C4
:102F50001C46903C27701C46983C27701C46A03CA1
:102F600027701C46A83C27701C46B03C27701C46A6
:102F7000B83C27701C46C03C27701C46C83C2770D4
:102F80001C46D03C27701C46D83C27701C46E03CB1
:102F900027701C46E83C27701C46F03C27705C18E4
:102FA000F83B1F70203A23469ED10346FA33802215
:102FB0001F701C46083C27701C46103C27701C469E
:102FC000183C27701C46203C27701C46283C277064
:102FD0001C46303C27701C46383C27701C46403C41
:102FE00027701C46483C27701C46503C27701C46E6
:102FF000583C27701C46603C27701C46683C277074
:103000001C46703C27701C46783C27701C46803C50
:1030100027701C46883C27701C46903C27701C4635
:10302000983C27701C46A03C27701C46A83C277083
:103030001C46B03C27701C46B83C27701C46C03C60
:1030400027701C46C83C27701C46D03C27701C4685
:10305000D83C27701C46E03C27701C46E83C277093
:103060001C46F03C27705C18F83B1F70203A234642
:103070009ED10346FB3380221F701C46083C2770FC
:103080001C46103C27701C46183C27701C46203CF0
:1030900027701C46283C27701C46303C27701C4675
:1030A000383C27701C46403C27701C46483C277023
:1030B0001C46503C27701C46583C27701C46603C00
:1030C00027701C46683C27701C46703C27701C46C5
:1030D000783C27701C46803C27701C46883C277033
:1030E0001C46903C27701C46983C27701C46A03C10
:1030F00027701C46A83C27701C46B03C27701C4615
:10310000B83C27701C46C03C27701C46C83C277042
:103110001C46D03C27701C46D83C27701C46E03C1F
:1031200027701C46E83C27701C46F03C27705C1852
:10313000F83B1F70203A23469ED10346FC33802281
:103140001F701C46083C27701C46103C27701C460C
:10315000183C27701C46203C27701C46283C2770D2
:103160001C46303C27701C46383C27701C46403CAF
:1031700027701C46483C27701C46503C27701C4654
:10318000583C27701C46603C27701C46683C2770E2
:103190001C46703C27701C46783C27701C46803CBF
:1031A00027701C46883C27701C46903C27701C46A4
:1031B000983C27701C46A03C27701C46A83C2770F2
:1031C0001C46B03C27701C46B83C27701C46C03CCF
:1031D00027701C46C83C27701C46D03C27701C46F4
:1031E000D83C27701C46E03C27701C46E83C277002
:1031F0001C46F03C27705C18F83B1F70203A2346B1
:103200009ED10346FD3380221F701C46083C277068
:103210001C46103C27701C46183C27701C46203C5E
:1032200027701C46283C27701C46303C27701C46E3
:10323000383C27701C46403C27701C46483C277091
:103240001C46503C27701C46583C27701C46603C6E
:1032500027701C46683C27701C46703C27701C4633
:10326000783C27701C46803C27701C46883C2770A1
:103270001C46903C27701C46983C27701C46A03C7E
:1032800027701C46A83C27701C46B03C27701C4683
:10329000B83C27701C46C03C27701C46C83C2770B1
:1032A0001C46D03C27701C46D83C27701C46E03C8E
:1032B00027701C46E83C27701C46F03C27705C18C1
:1032C000F83B1F70203A23469ED10346FE338022EE
:1032D0001F701C46083C27701C46103C27701C467B
:1032E000183C27701C46203C27701C46283C277041
:1032F0001C46303C27701C46383C27701C46403C1E
:1033000027701C46483C27701C46503C27701C46C2
:10331000583C27701C46603C27701C46683C277050
:103320001C46703C27701C46783C27701C46803C2D
:1033300027701C46883C27701C46903C27701C4612
:10334000983C27701C46A03C27701C46A83C277060
:103350001C46B03C27701C46B83C27701C46C03C3D
:1033600027701C46C83C27701C46D03C27701C4662
:10337000D83C27701C46E03C27701C46E83C277070
:103380001C46F03C27705C18F83B1F70203A23461F
:103390009ED1FF30802207700346083B1F70034612
:1033A000103B1F700346183B1F700346203B1F70E5
:1033B0000346283B1F700346303B1F700346383BD3
:1033C0001F700346403B1F700346483B1F70034677
:1033D000503B1F700346583B1F700346603B1F70F5
:1033E0000346683B1F700346703B1F700346783BE3
:1033F0001F700346803B1F700346883B1F700346C7
:10340000903B1F700346983B1F700346A03B1F7004
:103410000346A83B1F700346B03B1F700346B83BF2
:103420001F700346C03B1F700346C83B1F70034616
:10343000D03B1F700346D83B1F700346E03B1F7014
:103440000346E83B1F700346F03B1F704318F838F3
:103450000770203A18469ED100F002F807B0F0BD80
:10346000F0B589B04B20C00004900020704E019050
:10347000024603E0521C082A00D1D2E005A80199B7
:103480000170B0210292114341703068800608D467
:103490003068800605D43068800602D43068800623
:1034A000F3D505A902226148FDF7EAFD3546083D3E
:1034B0002868614908407821039108432860371F34
:1034C00038685C490840584908433860049801F05E
:1034D000C7F93068800608D43068800605D43068A3
:1034E000800602D430688006F3D506A80024447014
:1034F00004703068800608D43068800605D43068CF
:10350000800602D430688006F3D506A90222474817
:10351000FDF7B6FD2868484908400399084328602C
:10352000386844490840404908433860049801F02D
:1035300097F93068800608D43068800605D4306872
:10354000800602D430688006F3D507A810214170A8
:1035500004703068800608D43068800605D430686E
:10356000800602D430688006F3D507A902222F48CE
:10357000FDF786FD28683049084003990843286014
:1035800038682C490840284908433860049801F0FD
:1035900067F93068800608D43068800605D4306842
:1035A000800602D430688006F3D5029A04E0641CD9
:1035B000802C029A00D15DE7E000A5490818805CE4
:1035C00008A94870402008703068800608D4306828
:1035D000800605D43068800602D430688006F3D5B2
:1035E00008A902221148FDF74BFD2868124908403E
:1035F00003990843286038680E4908400A4908437F
:103600003860049801F02CF930688006CFD4306817
:103610008006CCD430688006C9D430688006F3D5E3
:10362000C5E709B0F0BDC0460700020000000F402A
:1036300018120F40F8FF00F000F8FFFFF0B58AB055
:10364000154607465A07D808002A00D0401C5C08D7
:103650004443200600D1F1E0182B00D9EEE0012010
:1036600008909840764A104200D1E7E0203DEAB247
:103670000C2000925043734A1018E6B200220991C0
:1036800007930691102B039007D00C2B044609D00A
:103690002420009948436D4902E0009800016A49DE
:1036A0000818841804920721099A104602910840CC
:1036B000089B8340F8B2C00065490918D0B2C00821
:1036C0000D46095C0022A456002C059701D49943AD
:1036D00000E0194329540998471CF8B20699421A88
:1036E000079B9A4200D19CE0E2B202990F40089BEE
:1036F000BB40C008295C0192520601D5194300E085
:103700009943069F29540998841CE0B2C21B079B69
:103710009A42394600D184E002990C40089BA340AC
:10372000C008295C019A920601D5194300E099432B
:10373000069F29540998C41CE0B2C21B079B9A42F9
:1037400039466ED002990C40089BA340C008295C02
:10375000019AD20601D5194300E09943069F2954E6
:103760000998041DE0B2C21B079B9A42394658D003
:1037700002990C40089BA340C008295C019A1207DB
:1037800001D5194300E09943069F29540998441D27
:10379000E0B2C21B079B9A42394642D002990C40C4
:1037A000089BA340C008295C019A520701D5194320
:1037B00000E09943069F29540998841DE0B2C21B7A
:1037C000079B9A4239462CD002990C40089BA34093
:1037D000C008295C019A920701D5194300E099437A
:1037E000069F29540998C41DE0B2C21B079B9A4248
:1037F000394616D002990C40089BA340C008295CAA
:10380000019AD20701D0194300E09943069A29543E
:10381000099808300990C0B2801A079B9842114657
:103820000AD1059F7F1C0991761E0398401C049ABB
:10383000521C002E02D025E7059FF5E70AB0F0BD27
:1038400000100101306C0000A470000094760000AC
:1038500058012020F0B593B0069210910590002BEE
:1038600000D135E218994807CE08002800D0761C10
:10387000480802904643F0B20090981E0190002440
:10388000FB4D04930396119106E0049B0798984220
:10389000039E089C00D31BE2671CF8B2079083428A
:1038A00001D1012120E0E04318180199091BC9B298
:1038B000032901D2012109E0FC2202400023012159
:1038C00069431B1DDDB29542E94DF9D10322104039
:1038D0000AD0012801D10A2005E0022802D07D206B
:1038E000C00000E0642041430897069802F0B2FE51
:1038F0000A21FCF755FD02984443059822180B91C4
:10390000002900D1F3E030061199109CBDD0182990
:10391000BBD81646012318468840EF4A1042B4D05F
:1039200010200B9A02430B920022009812940C93E1
:1039300010290F920E9006D00C2908D10C200B995B
:103940004843E74907E00B980001E44903E02420DD
:103950000B994843E349081880180722129C214616
:103960000D9211401D468D403346F1B2C900DE4A2A
:103970005218E1B2C9081746525C00268057002849
:1039800001D4AA4300E02A43109C7A5412994D1C9A
:10399000EAB2111B119EB14231461E460C9B00D16A
:1039A0009AE00A9619462346C4B20D980540A940EC
:1039B000D0083E463A5C0994650601D50A4300E00A
:1039C0008A431C46374632541298821CD0B2C11A20
:1039D000119DA94229460C9B0A9E7DD00D990A4053
:1039E00019469140C0083A5C099DAD0601D50A43CD
:1039F00000E08A433A541298C21CD0B2011B119DB8
:103A0000A942294668D00D990A4019469140C0083C
:103A10003A5C099DED0601D50A4300E08A433A5419
:103A20001298021DD0B2011B119DA942294653D004
:103A30000D990A4019469140C0083A5C099D2D072E
:103A400001D50A4300E08A433A541298421DD0B28D
:103A5000011B119DA94229463ED00D990A401946E5
:103A60009140C0083A5C099D6D0701D50A4300E00A
:103A70008A433A541298821DD0B2011B119DA9426B
:103A8000294629D00D990A4019469140C0083A5C50
:103A9000099DAD0701D50A4300E08A433A541298C4
:103AA000C21DD0B2011B119DA942294614D00D9907
:103AB0000A4019469140C0083A5C099DED0701D0C3
:103AC0000A4300E08A433A54129808301290C0B278
:103AD000001B1199884201D1761C12940E98401E49
:103AE0000F9A521C00287B4D00D021E7CDE630060E
:103AF0001199109C00D1C8E6182900D9C5E61646D0
:103B000001200F908840744A104200D1BDE6092080
:103B10008001744A121800230098129410290E9202
:103B20000D930C9005D00C2908D16D48C218C032F5
:103B300004E06A48C1180F9802028A180720129DF3
:103B40002C460B9004400F99A1403346F4B2E40098
:103B500065480719EDB2ED087E5D00201256002A77
:103B600001D48E4300E00E437E551298451CE9B205
:103B7000109C081B119EB0421E4600D19AE0D4B2A0
:103B80000B9805400F9EAE40C9087A5C0A94600607
:103B900001D5324300E0B2437A541298821CD1B26C
:103BA000109C081B119DA8421E4600D182E02346AE
:103BB0000B9802400F9D9540C9087A5C0A988006D0
:103BC00001D52A4300E0AA437A541298C21CD1B20C
:103BD0001C46C81A119DA8426CD00B9802400F9D3C
:103BE0009540C9087A5C0A98C00601D52A4300E0CE
:103BF000AA437A541298021DD1B21C46C81A119DCC
:103C0000A84257D00B9802400F9D9540C9087A5C96
:103C10000A98000701D52A4300E0AA437A54129873
:103C2000421DD1B21C46C81A119DA84242D00B9821
:103C300002400F9D9540C9087A5C0A98400701D55B
:103C40002A4300E0AA437A541298821DD1B21C463E
:103C5000C81A119DA8422DD00B9802400F9D954087
:103C6000C9087A5C0A98800704D52A4303E0C04655
:103C700010270000AA437A541298C21DD1B21C46E4
:103C8000C81A119DA84215D00B9802400F9D95406F
:103C9000C9087A5C0A98C00701D02A4300E0AA4309
:103CA0007A54129808301290C0B21C46C01A11996A
:103CB000884201D1761C12940C98401E0E9A521C18
:103CC0000D9B5B1C00281199024D00D026E7DCE516
:103CD00013B0F0BD1027000000100101A470000017
:103CE000306C000094760000580120200021016013
:103CF00041608160C160C16101624162816270475F
:103D0000F0B583B00446006A0190606203CC029172
:103D1000083C02F0E5FE074620626069002600903C
:103D2000314602F092FD002814D1A16A384602F013
:103D3000BBFD0546A062E66A314602F0A7FD0028F9
:103D400001D1A6623546266B2846314602F088FD31
:103D5000002801D1A66235460098294602F068FE87
:103D600005462069394602F063FE294602F09CFDB3
:103D700005463846019902F0B3FE0146A06902F0FB
:103D800057FE294602F090FD0646E060002102F051
:103D90007DFD002805D1E16B304602F085FD064629
:103DA000E0600021304602F05BFD002805D1E16BA8
:103DB000304602F095FE0646E060656B30462946C7
:103DC00002F064FD002801D1E5602E46A56B304667
:103DD000294602F045FD002800D1E5600298A06068
:103DE00003B0F0BD00000000000000000000000073
:103DF000EFF309800E4A1168243808607346F8C052
:103E000044464D4656465F46F0C072B601F0ECFEA1
:103E100062B6074A116808681430F0C8A046A9467F
:103E2000B246BB4680F309882438F8C81847C04614
:103E3000B807202000000000000000000000000083
:103E400004207146084203D0EFF30980044B184761
:103E5000EFF30880024B1847C046C046C046C04634
:103E60009D59000010B51A4C1A492046FDF786FBF3
:103E700019492046FDF75EFB0320C103174802687D
:103E80008A4302600169164A0A404121890051189B
:103E9000016141691B220A4324218A43426142682D
:103EA00001210A4043688B439A1842608A020D4BF5
:103EB0001C6814431C60FF2212060B4B1C689443C1
:103EC000CA07A2181A6002680A43026010BDC04601
:103ED00000801040F0830000F28300000091104049
:103EE0000000FFFF289010400CE400E080B503487C
:103EF0000021034AFDF7A2F880BDC04600A0424061
:103F0000FC83000080B5FFF7F1FF80BDF0B5344AB7
:103F10000020D0611062842353623249012008607E
:103F2000936202230B608723136540230B602E4CA2
:103F3000A31C1360D360430615681D431560D56844
:103F40001D43D56082255567284B294E1E601746B4
:103F5000083F3D60171F3E601564264D55645C6048
:103F600094659C645C669463D463DC60DC63DC65AC
:103F70009C65DC668124DC625C619C611C631E4D77
:103F8000156655669D665D65D4659C601C6694608B
:103F9000DC649C63D4621467184A194B1360136382
:103FA0000205184B1C6814431C608306164C256AD6
:103FB0001D43256225681D4325600B46303B134C8D
:103FC0001C600C6012490B6813430B60800211499E
:103FD0000A6A02430A620A6802430A60F0BDC046E8
:103FE0000C804240D0320A4081000E008480424062
:103FF0008200040082000C0081000D00A0120A4023
:1040000080204340A0130A4028100A4000420C05BB
:1040100090330A4028300A4070B582B0194C1A49D2
:104020002046FDF741FA19492046FDF71BF9002506
:104030000095204629462A462B46FDF721FA2046C0
:1040400029462A46FDF70EFA204629462A46FDF75C
:1040500023FA01260096204629462A462B46FDF7DC
:104060000FFA204629463246FDF7FCF9204629463C
:104070003246FDF711FA064886600321016002B05E
:1040800070BDC046002086401484000018840000E3
:104090000031864010B5064C06492046FDF704FA6B
:1040A00005492046FDF768F904480121016010BD6B
:1040B000000087402084000024840000081187400D
:1040C00080B514481449FDF71BF80320410213483A
:1040D00002680A43026001210A0203681343036075
:1040E00002680A4306239A430260002242612722A3
:1040F0004262826B07231A4382631A02836B134363
:104100008363826A042313438362826A0A4382625E
:1041100080BDC04600000F403884000000120F40F0
:1041200070B51B48002404600F200002194E31684E
:10413000814301256802081830600320C143321F03
:1041400013680B4013607168A9437160290272689B
:104150008A437260000321462246FDF747F80E4865
:10416000FCF7E2FF306810210143202081433160D9
:1041700028033168014331602046FDF75FF8FF20D6
:10418000000206490A688243E8031018086070BDFF
:1041900008030B4004010B403C84000000E400E0F5
:1041A0000548042101604F214160002181600168C0
:1041B00005220A430260704710E000E0B0B582B00B
:1041C000134C14492046FDF76FF913492046FDF7BB
:1041D00049F800250095204629462A462B46FDF73A
:1041E0004FF9204629462A46FDF73CF97D208100FB
:1041F00020462A46FDF750F9084801218160084A07
:10420000136802241C431460016002B0B0BDC046B4
:10421000008086406484000068840000009186402D
:104220002890864080B500F023F8FFF76FFEFFF777
:1042300077FFFFF7F1FEFFF7C1FFFFF72BFFFFF757
:104240003FFF00F0A5F8FFF70DFE00F04FF8FFF775
:1042500059FEFFF7A5FF9C20034900220A54B8200D
:1042600002490A5480BDC046100720205406202071
:10427000F0B581B01248134A4260134842601348B7
:104280004260134C6260134D6A60134E7260134FAC
:104290007A6013494A6013484260134A084B1A6017
:1042A000094B1A60094B1A6022602A6032603A603A
:1042B0000A6002601020FCF7BCFE01B0F0BDC046F1
:1042C00000080A40030000B100280A400028864088
:1042D000008886400008874000080F4000281040F2
:1042E000008810400008104001000026B0B5954C31
:1042F00023492046FDF742F922492046FDF71AF9E5
:104300000320C103204802688A43026001693E4AD3
:1043100011401531016141692D230B4312218B435B
:104320004361436801210B4044688C43E3184360B8
:10433000164B1C680C431C60FF32354C2568154039
:10434000CA03AA1822608A021A634A040368134344
:104350000360C2682023134350229343C360C268A2
:104360000223134305229343C3600F221202C36842
:1043700093430A029A18C26002680A430260B0BD01
:10438000708400007284000000111040281010405A
:1043900010B5194C19492046FDF7F0F81849204688
:1043A000FDF7C8F80320C103164802688A4302607B
:1043B0000169154A0A401532026141692D220A43FA
:1043C00012218A434261426801210A4043688B43BB
:1043D0009A1842608A020D4B1C6814431C60FF222D
:1043E00012040B4B1C689443CA05A2181A60026899
:1043F0000A43026010BDC046002010407C840000CB
:104400007E840000003110400000FFFF2830104083
:104410000CE400E0F0B581B04A4CFF252046294667
:104420000095FDF7B5F8AA2620463146FDF7B0F80D
:1044300069212046FDF7ACF888212046FDF7A8F851
:10444000B5212046FDF7A4F86427384600F0F8F9B6
:1044500020462946FDF79CF820463146FDF798F89E
:1044600001212046FDF794F808212046FDF790F839
:10447000002520462946FDF78BF8384600F0E0F984
:1044800020460099FDF784F820463146FDF780F874
:1044900020462946FDF77CF820462946FDF778F8A6
:1044A00020462946FDF774F801B0F0BDF0B581B0A3
:1044B000D74CFF25204629460095FDF769F8AA2626
:1044C00020463146FDF764F869212046FDF760F883
:1044D00088212046FDF75CF8B5212046FDF758F805
:1044E0006427384600F0ACF920462946FDF750F81D
:1044F00020463146FDF74CF801212046FDF748F8EB
:1045000004212046FDF744F8002520462946FDF702
:104510003FF8384600F094F920460099FDF738F846
:1045200020463146FDF734F820462946FDF730F89D
:1045300020462946FDF72CF820462946FDF728F8A5
:1045400001B0F0BD0000104010B500F033FF04468C
:1045500001F09CFE002803D00120000702490860FA
:10456000204600F03AFF10BD04ED00E010B51548FC
:104570000068C0B20B2823D113494868C2B213485F
:104580000378002B0AD05D2A13D112490978124A08
:104590000023535403700E48012110E05B2A0FD111
:1045A0000B49097800290BD10A4900220A70012120
:1045B00005E008480378084CE2540A60591C017071
:1045C00010BDC04620901040209110405106202080
:1045D000EA05202052062020EB052020F0B58DB002
:1045E000944908680222029290430860C96820201A
:1045F0000190401A7F4A13685B0705D4D269C0B2A4
:104600008E4B1A542120401AC1B20B2900D2E1E08E
:104610000B38C0B20B25294602F01CF868430890FD
:104620000A20C0430B9031E00902C81900B2FCF720
:1046300070FA734D2A46734F3B46FBF7EFFFFCF7CA
:1046400011FA6D4C6083049800020A99401800B278
:10465000FCF75FFA2A463B46FBF7E0FFFCF702FA5D
:104660002083059800020699401800B2FCF751FA21
:104670002A463B46FBF7D2FFFCF7F4F9E0820B99A0
:104680000B3108980B91884200D1A3E06B480B993D
:104690004518EB7A552BF2D1287D0990EE7CA87C49
:1046A0000790687C297CEA7B0A92AF7B6C7B2A7B33
:1046B0006D7DD3180694E3180597FB18099C0A9F93
:1046C000FB180491CB180799C318CB180396F3185D
:1046D000E318DBB2AB42D2D10746532A3CD0522A70
:1046E000A2D0512ACBD10902C81900B2FCF711FAA5
:1046F000434A1746444BFBF791FFFCF7B3F93E4D95
:10470000A882049800020A99401800B2FCF701FA46
:104710003A463D4BFBF782FFFCF7A4F96882059807
:1047200000020699401800B2FCF7F3F93A46364BFE
:10473000FBF774FFFCF796F92882099800020399A9
:10474000401800B2FCF7E5F90022304BFBF766FF9A
:10475000FBF726FFE86092E7220203981218264C26
:10476000A28326460902C81900B2FCF7D2F93F22FB
:104770001706002422463B46FCF7D6F922461F4B7B
:10478000FCF7D2F9FBF70CFFB060049800020A991D
:10479000401800B2FCF7BDF922463B46FCF7C4F9CD
:1047A0002246164BFCF7C0F9FBF7FAFE306005987D
:1047B00000020699401800B2FCF7ABF922463B46CE
:1047C000FCF7B2F922460D4BFCF7AEF9FBF7E8FE19
:1047D000706054E70E480CA90422FCF773FE1748DA
:1047E000144988600198C8600868029A10430860FC
:1047F0000DB0F0BD081110404C282020008066400C
:10480000FCA9F1D24D6230404D6200400000594099
:104810000000104007480849416008498160202194
:10482000C160016802220A430260012040034A4934
:104830000860704700B24240241110406C282020CC
:1048400070B5002809D00446044D2E465020FCF7D0
:10485000F0FB761CFAD3641EF7D170BD18FCFFFF85
:1048600010B5002805D004465020FCF7E2FB641E7A
:10487000FAD110BD374802210160374A116001604A
:104880001160704780B5044800687D21890001F0FF
:10489000E1FE002180BDC0460018874082B0FFF7CE
:1048A000C1FCFDF71DFC00242046FDF7C3FA20469D
:1048B000FDF734FBFCF794FF2248FFF717FA224874
:1048C000FFF714FA2148FFF711FAFFF7D3FFFCF7BF
:1048D00029FFFFF79FFF1E48011F0C60016801269A
:1048E000B1430160F0031B4908601B4A1060B0032C
:1048F00008601060700308601060FFF78BFDFFF721
:10490000D5FD1648022100910190154815A180257A
:104910002A46234601F044FB1448032100910190EC
:10492000134814A12A46234601F03AFB1348009687
:104930000190134813A12A46234601F031FB01F0F0
:1049400011F9FEE7040020208400202044002020EC
:104950000418874080E200E000E100E0E828202021
:10496000355400004D616A6F72000000F02820206D
:104970001D5600004D6F746F720000000429202046
:104980000D5800004F4C454400000000F0B583B0C6
:104990000F4606461D4805681D48006802901D48E0
:1049A000006801901C4C2068001D00F007FD701C81
:1049B00015D1002F13D0206819490CC9836098685D
:1049C0002568E860521C08390A602268121D42609E
:1049D0002068001D98602068416103B0F0BDAE19E9
:1049E000206846602068011DAE4204D2019800F0A4
:1049F00002FD03B0F0BD029800F0FDFC074801681D
:104A00008E4200D2066003B0F0BDC046542920207B
:104A1000C0072020C8072020B8072020F428202025
:104A20002C292020114D124F124E14E000F020FFCF
:104A3000F868C468201D00F0C1FC3068401E30607A
:104A40002868401E286000F01DFF206B00F02CFF3E
:104A5000204600F029FF28680028E7D106480068B2
:104A60000228F8D300F0B4FFF5E7C046382820202C
:104A70004029202034282020D0072020F0B583B002
:104A8000044601F0FDFB224A1168884231D20194AC
:104A90000290AE4C07E029462831FA2210400870F7
:104AA000296A2846884720680168002923D0C06801
:104AB0000768C5682E1D304600F080FC2820285C61
:104AC0004107E8D5A869C4196C602D61BC4209D3BF
:104AD000296A28468847A869001968602D61A042A4
:104AE0000446F5D29A480068314600F084FC974CA1
:104AF000D6E7002107E096490A6822600860012194
:104B00000298019C024A1060216003B0F0BDC046CB
:104B1000B407202081B0002000900A48006872B6D7
:104B2000401C09D0FEE70098002808D10098002812
:104B300005D10098002802D100980028F3D001B0D8
:104B40007047C046C400202086B0824F7F4800686E
:104B50000568002D02D0C068066800E0002601F05C
:104B60003DF802A8FFF78AFF04460298002802D009
:104B700001F090FC47E0002D28D0A64226D801F095
:104B800089FC72480068C068C568281D009000F064
:104B900015FC2820285C41070CD429462831FA222C
:104BA000104008702CE0A11B814223D3296A2846BB
:104BB00088473E46A86987196F602D61A742F2D9E0
:104BC000B44201D2B742F1D2604814E0002D01D0C6
:104BD000002204E05E480068006842424241311B06
:104BE000386800F001FF01F055FC00280BD100F0FF
:104BF000EFFE08E056480068009900F0FCFB554FB6
:104C0000296A28468847002205920492039202925C
:104C1000386802A906E0386800F0EDFB4D4F3868AF
:104C200002A9002201F0CBF800288FD002980028BA
:104C300006D505990498039A904702980028EED467
:104C4000049C002CEBD06069002802D0201D00F0ED
:104C5000B5FB01A8FFF712FF05460298401E082881
:104C6000DDD8C046784400794000874404043823E6
:104C70005504043823002820225C012111432154CB
:104C8000A069039BC61866602461211DAE4205D948
:104C90009D422E4FBFD29E4204D2BCE7EB1A834204
:104CA0002B4FB8D3530720D420462830FA210A408E
:104CB00002703EE02820215C01220A43225403981E
:104CC000A06100283FD0401960602461A8421F48BD
:104CD00000D81F480068211D00F08DFB9FE72820A9
:104CE000215CFE220A40225499E70E4603990918D6
:104CF00007E0691A814217D3216A20468847A069D4
:104D000039460F1867602461AF42F2D98D4201D253
:104D10008F42F1D20D4808E02820205C81070DD495
:104D2000204600F0C1FD7AE709480068314600F0EE
:104D300062FB084F216A2046884770E72834FE212D
:104D4000084020706BE772B6FEE7C046BC07202023
:104D5000CC07202058292020F0B581B00446064613
:104D6000443600F085FD01203756012F12DB254621
:104D7000243504E0781E79B2012907460ADD286847
:104D8000002807D0284601F02BFB0028F2D000F0C5
:104D9000B5FEEFE7FF25757000F074FD00F068FDCB
:104DA00000203756012F11DB103404E0781E79B251
:104DB000012907460ADD2068002807D0204601F0B7
:104DC0000FFB0028F2D000F099FEEFE7357000F0FD
:104DD00059FD01B0F0BD0000F0B583B001460831C7
:104DE000002509290BD307220346134006D0093BAF
:104DF000994204D890431030054600E00D4600F07B
:104E0000EDFE59490E68002E02D0584803681BE099
:104E1000574C002060600722D343564E720732463B
:104E200001D0F21D1A4022600124640334191C4091
:104E3000083C0C6020606060A31A53604E48036019
:104E40004A4803600E681660012200249D42104605
:104E500000D820460093012D114600DB2146014376
:104E600005D001F017FB600737D072B6FEE7434864
:104E700040490F183E4802900068B84201D800210E
:104E800000E001213B4B9842134600D30B46002B18
:104E900001D072B6FEE743680024AB4220D201681D
:104EA000002937D002900846B94201D8002100E01D
:104EB0000121304B9842134600D30B46012B35D0CD
:104EC0004368AB4201D3002100E001210191AB42D4
:104ED00007D201680029E5D103E0204603B0F0BD08
:104EE0000194B042BDD0029E34680834BC4201D85F
:104EF000002100E001211F4FBC4200D30A46012AD5
:104F000001D172B6FEE701683160019A002A05D02E
:104F100072B6FEE70192B042E5D1A2E75A1B102A11
:104F200006D943195E0706D072B6FEE772B6FEE7F1
:104F30004568009905E006C30299083B0B600B49E0
:104F40000968491B094A11600B4A1368994200D24B
:104F5000116000210122D207154322C008480168D0
:104F6000491C01607DE7C046C4072020E0282020BE
:104F70002429202034082020EC282020FF1F0000B6
:104F8000FC2820200346083B1960011F01231B0653
:104F90000B6001460C391D4B0B60014610391C4B50
:104FA0000B60014614391B4B0B60014618391A4B34
:104FB0000B6001461C39194B0B60014620390A6011
:104FC00001462439164A0A6001462839154A0A6002
:104FD00001462C39144A0A6001463039134A0A60E6
:104FE00001463439124A0A6001463839114A0A60CA
:104FF00001463C39104A0A60014640390F4A0A60AE
:1050000044380221C94301607047C046154B000077
:105010001212121203030303020202020101010130
:1050200011111111101010100909090908080808B8
:105030000707070706060606050505050404040418
:10504000F0B581B001218D030C05CE4B1A68D20654
:10505000CD4A14D51E68B60611D416682E420ED15C
:105060001E6826420BD11E68B60108D44E0617688A
:10507000374204D11668360101D4C4497EE11E6866
:10508000F60614D51E68B60611D516682E420ED146
:105090001E6826420BD11E68B60108D44E0617685A
:1050A000374204D11668360101D4B94966E11E6859
:1050B000F60614D51E68B60611D516682E420ED017
:1050C0001E6826420BD11E68B60108D44E0617682A
:1050D000374204D11668360101D4AE494EE11E684C
:1050E000F60614D41E68B60611D516682E420ED1E7
:1050F0001E6826420BD11E68B60108D44E061768FA
:10510000374204D11668360101D4C121D6E01E68A9
:10511000F60614D41E68B60611D516682E420ED0B7
:105120001E6826420BD11E68B60108D44E061768C9
:10513000374204D11668360101D497491EE11E6832
:10514000F60614D41E68B60611D416682E420ED088
:105150001E6826420BD11E68B60108D44E06176899
:10516000374204D11668360101D48C4906E11E6825
:10517000F60614D41E68B60611D416682E420ED058
:105180001E6826420BD01E68B60108D44E0617686A
:10519000374204D11668360101D48149EEE01E6819
:1051A000F60612D41E68B6060FD416682E420CD12D
:1051B0001E68264209D01E68B60106D44E0617683E
:1051C000374202D11668360115D51E68F60615D489
:1051D0001E68B60612D416682E420FD01E682642EC
:1051E0000CD01E68B60109D54E061768374205D1A6
:1051F0001668360102D4002001B0F0BD1E68F60624
:1052000015D41E68B60612D416682E420FD11E6839
:1052100026420CD01E68B60109D54E0617683742E3
:1052200005D11668360102D48121C905A6E01E68A1
:10523000F60614D41E68B60611D416682E420ED196
:105240001E6826420BD11E68B60108D54E061768A7
:10525000374204D11668360101D452498EE01E68E7
:10526000F60614D41E68B60611D416682E420ED166
:105270001E6826420BD11E68B60108D54E06176877
:10528000374204D01668360101D4474976E01E68DB
:10529000F60615D41E68B60612D416682E420FD133
:1052A0001E6826420CD11E68B60109D44E06176846
:1052B000374205D01668360102D4412109065DE067
:1052C0001E68F60612D41E68B6060FD416682E4263
:1052D0000CD11E68264209D11E68B60106D54E06BD
:1052E0001768374202D01668360142D41E68F606A7
:1052F00012D41E68B6060FD416682E420CD11E6852
:10530000264209D11E68B60106D44E0617683742F8
:1053100002D0166836012ED41E68F60612D41E6816
:10532000B6060FD416682E420CD11E68264209D14B
:105330001E68B60106D44E061768374202D11668B9
:1053400036011AD41E680020F60610D41E68B60670
:105350000DD416682E420AD11D68254207D11B685C
:105360009B0104D4490613680B4200D1116801B0B7
:10537000F0BDA74902E00D4900E00D4901F058FBDE
:1053800001B0F0BD80330A4080130A40000050C1D4
:10539000000030C1000020C10000C0C00000A0C05B
:1053A000000080C00000A0400000C040000030416C
:1053B00000005041EFF3108072B670474168826878
:1053C0008A60516001694B68834200D14A600022C3
:1053D00002610868401E0860704780F310887047BB
:1053E000002102460832CB430EC002604260704783
:1053F000002101617047B0B50B685A1C0BD0044600
:105400000834626815689D4208D8546825689D4232
:105410002546F6D904E00269556801E015462246A2
:10542000A96008614D608A6051600168491C016093
:10543000B0BD00006D4D6E4E704F714C02E0022009
:1054400000F016FB6C480078401E032837D8C04691
:10545000784400794000874401280B142078401CD0
:10546000207000202156042927DB0321217024E02D
:10547000002061490870012038703220FFF7E0F900
:105480001DE05C4B181F0021016018680122904349
:1054900018603970217039705A480170D348016022
:1054A000554801705848027009E02078401E20706D
:1054B00000202156002900D520704F49087053481C
:1054C000FFF7BEFDCA49486028684004C00F316834
:1054D0008906C90F08183168C906C90F4018316814
:1054E000C902C90F401829680901C90F4018296865
:1054F0008901C90F401831688901C90F4018DB497B
:105500000870FCF757F8012803D13E490878401C81
:105510000870387801283C4B91D1207803288ED828
:1055200078440079400087440109173D0020B049C4
:10553000C860AE490860A249086080E71878012871
:1055400040D12C4A106801210143116000202D49EF
:105550000870A649304A32E0187801280ED1254A51
:1055600010680121084310600020264A10709F4AED
:10557000274F1760214F914A1170187090480068AA
:105580002449884200D25AE70020387020703870D1
:105590008B49086001211970944A1060194A1070F3
:1055A000864A1DE0187801280CD1124A10680121A2
:1055B000014311600020134908708C49144A0A60A5
:1055C00018703CE70F480078002800D137E700202A
:1055D00038702070387001211970844A1060094AAF
:1055E0001070044A10688843106028E780130A404E
:1055F00080330A40041887404C0120204F062020A9
:10560000E9052020E8052020000020203333134046
:1056100000002041280A00000000704182B000F024
:105620002FFE0190604C13E02E603846FBF7A0FB84
:1056300001460120FCF794F82868FBF799FB014626
:105640000220FCF78DF8584C01A80A2100F0B8FDA3
:105650002078401C2070FCF725F820780328F3D32D
:10566000002727700120514C2146514D2A46FCF756
:105670004DF8504E3080022021462A46FCF746F86D
:105680004D49088031880CB24C490978002903D073
:105690004B4A11680919116000B2FBF73AFA494EFA
:1056A0003246494BFBF740FA3A46484BFAF7B6FF09
:1056B0003A46474BFAF7B2FF464A474BFAF7AEFF76
:1056C000FAF76EFF0546454805602046FBF721FACC
:1056D00032463D4BFBF728FA3A463C4BFAF79EFF21
:1056E0003A463B4BFAF79AFF3A4A3B4BFAF796FF9A
:1056F000FAF756FF04463A4804602846214601F06E
:10570000EFF9384908602846214601F0CDF83F21DD
:105710000C06214601F08CF933490860334D68606E
:105720002846FEF7EDFA324E3760E868314D2860C2
:105730003046FEF7E5FAF0682F490860214601F08F
:1057400077F904462D68294601F0AEF807462B4844
:1057500007602846214601F0C3F90446284D286019
:105760003846284E314601F086F80028304608D1E8
:105770003846254D294601F073F800282846204D6B
:1057800002D11E49086007462046314601F073F8F1
:10579000002800D048E720461B4E314601F060F853
:1057A000002800D140E740E748282020440120207D
:1057B00048012020380120203A012020DC0520204B
:1057C000D8052020295C8FC2F568344000003C4099
:1057D00000002A40B81E85EB51B89E3FE40520200A
:1057E00054012020340120202C01202004002020FE
:1057F000840020202801202030012020500120207A
:10580000E005202000007A4400007AC482B0174FDF
:10581000FFF738F87D22D20000242346FAF702FD74
:10582000024610250095032320462146FEF712F874
:105830001820732221462B46FDF700FF0A48025725
:1058400000950226204629463346FEF703F83A78AB
:105850000095202120463346FDF7FCFFFDF700FEB2
:105860000A2000F005F9D3E7E905202050062020A2
:1058700072B60C480168491C0160BFF34F8FBFF33B
:105880006F8F704707480168002906D00168491EDC
:1058900001600068002802D0704772B6FEE762B669
:1058A0007047C046C4002020F0B581B0002866D003
:1058B000344E0446083C01250022B442294600D358
:1058C0001146314BF718BC422B4600D813461943FA
:1058D000012901D172B6FEE7061F3068002801D405
:1058E00072B6FEE72168002901D072B6FEE70121F9
:1058F0000091C9078843306000F070F9306823498F
:105900000A6812180A60224A1E4E1368A34204D283
:105910001A68A2421946F8D301E011461A461C4BF8
:1059200099420ED0B94205D9B14207D2012D08D112
:1059300072B6FEE700230093B142F7D3009D012D1C
:10594000F6D04B68CD18A54202D1C01848600C466D
:105950002318934201D0134607E00E4B1B689A426E
:1059600003D053681818606013682360A14200D008
:105970000C6009480168491C016000F08BFD01B012
:10598000F0BDC04634082020FF1F0000E028202082
:1059900024292020C40720200029202080B58069E8
:1059A000801E0078642802D100F042F880BD72B6F3
:1059B000FEE70000044804210160002181600349E2
:1059C000416007210160704710E000E0FF7C0000AB
:1059D0000120000703490860BFF34F8FBFF36F8FAB
:1059E0007047C04604ED00E070B515460E4604460B
:1059F000FFF73EFF4420215C20464430FF2901D1BF
:105A0000002101704178FF2901D100214170FFF789
:105A100039FFA06B002805D12046243031462A46A4
:105A200000F080F82046FFF797F970BD00000000F5
:105A3000074A1168086804C8022181F314882030DD
:105A400080F30988BFF36F8F1047C046C046C04639
:105A5000B807202000000000000000000000000047
:105A600062B6BFF34F8FBFF36F8F64DF00BFC046D6
:105A7000F0B581B000282FD084490A68521C0A6012
:105A80000968012918D153490F681549096800911F
:105A900014490D68814C2168091D06460846FFF728
:105AA0008DFCBE19206846602068011DBE4205D2EB
:105AB0002846FFF7A0FC09E072B6FEE70098FFF762
:105AC0009AFC424801688E4200D2066000F0E2FC77
:105AD000002801D001B0F0BDFFF77AFF01B0F0BDA2
